{
  "_format": "hh-sol-artifact-1",
  "contractName": "TxxxTokenV1",
  "sourceName": "contracts/Txxx.sol",
  "abi": [
    {
      "anonymous": false,
      "inputs": [
        {
          "indexed": false,
          "internalType": "address",
          "name": "previousAdmin",
          "type": "address"
        },
        {
          "indexed": false,
          "internalType": "address",
          "name": "newAdmin",
          "type": "address"
        }
      ],
      "name": "AdminChanged",
      "type": "event"
    },
    {
      "anonymous": false,
      "inputs": [
        {
          "indexed": true,
          "internalType": "address",
          "name": "owner",
          "type": "address"
        },
        {
          "indexed": true,
          "internalType": "address",
          "name": "spender",
          "type": "address"
        },
        {
          "indexed": false,
          "internalType": "uint256",
          "name": "value",
          "type": "uint256"
        }
      ],
      "name": "Approval",
      "type": "event"
    },
    {
      "anonymous": false,
      "inputs": [
        {
          "indexed": true,
          "internalType": "address",
          "name": "beacon",
          "type": "address"
        }
      ],
      "name": "BeaconUpgraded",
      "type": "event"
    },
    {
      "anonymous": false,
      "inputs": [
        {
          "indexed": true,
          "internalType": "address",
          "name": "previousOwner",
          "type": "address"
        },
        {
          "indexed": true,
          "internalType": "address",
          "name": "newOwner",
          "type": "address"
        }
      ],
      "name": "OwnershipTransferred",
      "type": "event"
    },
    {
      "anonymous": false,
      "inputs": [
        {
          "indexed": true,
          "internalType": "address",
          "name": "from",
          "type": "address"
        },
        {
          "indexed": true,
          "internalType": "address",
          "name": "to",
          "type": "address"
        },
        {
          "indexed": false,
          "internalType": "uint256",
          "name": "value",
          "type": "uint256"
        }
      ],
      "name": "Transfer",
      "type": "event"
    },
    {
      "anonymous": false,
      "inputs": [
        {
          "indexed": true,
          "internalType": "address",
          "name": "implementation",
          "type": "address"
        }
      ],
      "name": "Upgraded",
      "type": "event"
    },
    {
      "inputs": [
        {
          "internalType": "address",
          "name": "owner",
          "type": "address"
        },
        {
          "internalType": "address",
          "name": "spender",
          "type": "address"
        }
      ],
      "name": "allowance",
      "outputs": [
        {
          "internalType": "uint256",
          "name": "",
          "type": "uint256"
        }
      ],
      "stateMutability": "view",
      "type": "function"
    },
    {
      "inputs": [
        {
          "internalType": "address",
          "name": "spender",
          "type": "address"
        },
        {
          "internalType": "uint256",
          "name": "amount",
          "type": "uint256"
        }
      ],
      "name": "approve",
      "outputs": [
        {
          "internalType": "bool",
          "name": "",
          "type": "bool"
        }
      ],
      "stateMutability": "nonpayable",
      "type": "function"
    },
    {
      "inputs": [
        {
          "internalType": "address",
          "name": "account",
          "type": "address"
        }
      ],
      "name": "balanceOf",
      "outputs": [
        {
          "internalType": "uint256",
          "name": "",
          "type": "uint256"
        }
      ],
      "stateMutability": "view",
      "type": "function"
    },
    {
      "inputs": [],
      "name": "decimals",
      "outputs": [
        {
          "internalType": "uint8",
          "name": "",
          "type": "uint8"
        }
      ],
      "stateMutability": "view",
      "type": "function"
    },
    {
      "inputs": [
        {
          "internalType": "address",
          "name": "spender",
          "type": "address"
        },
        {
          "internalType": "uint256",
          "name": "subtractedValue",
          "type": "uint256"
        }
      ],
      "name": "decreaseAllowance",
      "outputs": [
        {
          "internalType": "bool",
          "name": "",
          "type": "bool"
        }
      ],
      "stateMutability": "nonpayable",
      "type": "function"
    },
    {
      "inputs": [
        {
          "internalType": "address",
          "name": "spender",
          "type": "address"
        },
        {
          "internalType": "uint256",
          "name": "addedValue",
          "type": "uint256"
        }
      ],
      "name": "increaseAllowance",
      "outputs": [
        {
          "internalType": "bool",
          "name": "",
          "type": "bool"
        }
      ],
      "stateMutability": "nonpayable",
      "type": "function"
    },
    {
      "inputs": [],
      "name": "initialize",
      "outputs": [],
      "stateMutability": "nonpayable",
      "type": "function"
    },
    {
      "inputs": [],
      "name": "name",
      "outputs": [
        {
          "internalType": "string",
          "name": "",
          "type": "string"
        }
      ],
      "stateMutability": "view",
      "type": "function"
    },
    {
      "inputs": [],
      "name": "owner",
      "outputs": [
        {
          "internalType": "address",
          "name": "",
          "type": "address"
        }
      ],
      "stateMutability": "view",
      "type": "function"
    },
    {
      "inputs": [],
      "name": "renounceOwnership",
      "outputs": [],
      "stateMutability": "nonpayable",
      "type": "function"
    },
    {
      "inputs": [],
      "name": "symbol",
      "outputs": [
        {
          "internalType": "string",
          "name": "",
          "type": "string"
        }
      ],
      "stateMutability": "view",
      "type": "function"
    },
    {
      "inputs": [],
      "name": "totalSupply",
      "outputs": [
        {
          "internalType": "uint256",
          "name": "",
          "type": "uint256"
        }
      ],
      "stateMutability": "view",
      "type": "function"
    },
    {
      "inputs": [
        {
          "internalType": "address",
          "name": "recipient",
          "type": "address"
        },
        {
          "internalType": "uint256",
          "name": "amount",
          "type": "uint256"
        }
      ],
      "name": "transfer",
      "outputs": [
        {
          "internalType": "bool",
          "name": "",
          "type": "bool"
        }
      ],
      "stateMutability": "nonpayable",
      "type": "function"
    },
    {
      "inputs": [
        {
          "internalType": "address",
          "name": "sender",
          "type": "address"
        },
        {
          "internalType": "address",
          "name": "recipient",
          "type": "address"
        },
        {
          "internalType": "uint256",
          "name": "amount",
          "type": "uint256"
        }
      ],
      "name": "transferFrom",
      "outputs": [
        {
          "internalType": "bool",
          "name": "",
          "type": "bool"
        }
      ],
      "stateMutability": "nonpayable",
      "type": "function"
    },
    {
      "inputs": [
        {
          "internalType": "address",
          "name": "newOwner",
          "type": "address"
        }
      ],
      "name": "transferOwnership",
      "outputs": [],
      "stateMutability": "nonpayable",
      "type": "function"
    },
    {
      "inputs": [
        {
          "internalType": "address",
          "name": "newImplementation",
          "type": "address"
        }
      ],
      "name": "upgradeTo",
      "outputs": [],
      "stateMutability": "nonpayable",
      "type": "function"
    },
    {
      "inputs": [
        {
          "internalType": "address",
          "name": "newImplementation",
          "type": "address"
        },
        {
          "internalType": "bytes",
          "name": "data",
          "type": "bytes"
        }
      ],
      "name": "upgradeToAndCall",
      "outputs": [],
      "stateMutability": "payable",
      "type": "function"
    }
  ],
  "bytecode": "0x60a06040523073ffffffffffffffffffffffffffffffffffffffff1660809073ffffffffffffffffffffffffffffffffffffffff1660601b81525034801561004657600080fd5b5060805160601c6130c461007a600039600081816105de0152818161066d0152818161083901526108c801526130c46000f3fe6080604052600436106100fe5760003560e01c806370a082311161009557806395d89b411161006457806395d89b4114610316578063a457c2d714610341578063a9059cbb1461037e578063dd62ed3e146103bb578063f2fde38b146103f8576100fe565b806370a0823114610280578063715018a6146102bd5780638129fc1c146102d45780638da5cb5b146102eb576100fe565b8063313ce567116100d1578063313ce567146101d35780633659cfe6146101fe57806339509351146102275780634f1ef28614610264576100fe565b806306fdde0314610103578063095ea7b31461012e57806318160ddd1461016b57806323b872dd14610196575b600080fd5b34801561010f57600080fd5b50610118610421565b60405161012591906124ef565b60405180910390f35b34801561013a57600080fd5b5061015560048036038101906101509190612190565b6104b3565b60405161016291906124d4565b60405180910390f35b34801561017757600080fd5b506101806104d1565b60405161018d9190612711565b60405180910390f35b3480156101a257600080fd5b506101bd60048036038101906101b891906120ed565b6104db565b6040516101ca91906124d4565b60405180910390f35b3480156101df57600080fd5b506101e86105d3565b6040516101f5919061272c565b60405180910390f35b34801561020a57600080fd5b5061022560048036038101906102209190612088565b6105dc565b005b34801561023357600080fd5b5061024e60048036038101906102499190612190565b61078b565b60405161025b91906124d4565b60405180910390f35b61027e6004803603810190610279919061213c565b610837565b005b34801561028c57600080fd5b506102a760048036038101906102a29190612088565b610974565b6040516102b49190612711565b60405180910390f35b3480156102c957600080fd5b506102d26109bd565b005b3480156102e057600080fd5b506102e9610a45565b005b3480156102f757600080fd5b50610300610bc5565b60405161030d91906124b9565b60405180910390f35b34801561032257600080fd5b5061032b610bef565b60405161033891906124ef565b60405180910390f35b34801561034d57600080fd5b5061036860048036038101906103639190612190565b610c81565b60405161037591906124d4565b60405180910390f35b34801561038a57600080fd5b506103a560048036038101906103a09190612190565b610d6c565b6040516103b291906124d4565b60405180910390f35b3480156103c757600080fd5b506103e260048036038101906103dd91906120b1565b610d8a565b6040516103ef9190612711565b60405180910390f35b34801561040457600080fd5b5061041f600480360381019061041a9190612088565b610e11565b005b60606036805461043090612a87565b80601f016020809104026020016040519081016040528092919081815260200182805461045c90612a87565b80156104a95780601f1061047e576101008083540402835291602001916104a9565b820191906000526020600020905b81548152906001019060200180831161048c57829003601f168201915b5050505050905090565b60006104c76104c0610f09565b8484610f11565b6001905092915050565b6000603554905090565b60006104e88484846110dc565b6000603460008673ffffffffffffffffffffffffffffffffffffffff1673ffffffffffffffffffffffffffffffffffffffff1681526020019081526020016000206000610533610f09565b73ffffffffffffffffffffffffffffffffffffffff1673ffffffffffffffffffffffffffffffffffffffff168152602001908152602001600020549050828110156105b3576040517f08c379a00000000000000000000000000000000000000000000000000000000081526004016105aa90612631565b60405180910390fd5b6105c7856105bf610f09565b858403610f11565b60019150509392505050565b60006012905090565b7f000000000000000000000000000000000000000000000000000000000000000073ffffffffffffffffffffffffffffffffffffffff163073ffffffffffffffffffffffffffffffffffffffff16141561066b576040517f08c379a000000000000000000000000000000000000000000000000000000000815260040161066290612591565b60405180910390fd5b7f000000000000000000000000000000000000000000000000000000000000000073ffffffffffffffffffffffffffffffffffffffff166106aa611360565b73ffffffffffffffffffffffffffffffffffffffff1614610700576040517f08c379a00000000000000000000000000000000000000000000000000000000081526004016106f7906125d1565b60405180910390fd5b610709816113b7565b61078881600067ffffffffffffffff81111561074e577f4e487b7100000000000000000000000000000000000000000000000000000000600052604160045260246000fd5b6040519080825280601f01601f1916602001820160405280156107805781602001600182028036833780820191505090505b506000611436565b50565b600061082d610798610f09565b8484603460006107a6610f09565b73ffffffffffffffffffffffffffffffffffffffff1673ffffffffffffffffffffffffffffffffffffffff16815260200190815260200160002060008873ffffffffffffffffffffffffffffffffffffffff1673ffffffffffffffffffffffffffffffffffffffff1681526020019081526020016000205461082891906127cf565b610f11565b6001905092915050565b7f000000000000000000000000000000000000000000000000000000000000000073ffffffffffffffffffffffffffffffffffffffff163073ffffffffffffffffffffffffffffffffffffffff1614156108c6576040517f08c379a00000000000000000000000000000000000000000000000000000000081526004016108bd90612591565b60405180910390fd5b7f000000000000000000000000000000000000000000000000000000000000000073ffffffffffffffffffffffffffffffffffffffff16610905611360565b73ffffffffffffffffffffffffffffffffffffffff161461095b576040517f08c379a0000000000000000000000000000000000000000000000000000000008152600401610952906125d1565b60405180910390fd5b610964826113b7565b61097082826001611436565b5050565b6000603360008373ffffffffffffffffffffffffffffffffffffffff1673ffffffffffffffffffffffffffffffffffffffff168152602001908152602001600020549050919050565b6109c5610f09565b73ffffffffffffffffffffffffffffffffffffffff166109e3610bc5565b73ffffffffffffffffffffffffffffffffffffffff1614610a39576040517f08c379a0000000000000000000000000000000000000000000000000000000008152600401610a3090612651565b60405180910390fd5b610a436000611607565b565b600060019054906101000a900460ff1680610a6b575060008054906101000a900460ff16155b610aaa576040517f08c379a0000000000000000000000000000000000000000000000000000000008152600401610aa1906125f1565b60405180910390fd5b60008060019054906101000a900460ff161590508015610afa576001600060016101000a81548160ff02191690831515021790555060016000806101000a81548160ff0219169083151502179055505b610b6e6040518060400160405280600881526020017f74783078313131390000000000000000000000000000000000000000000000008152506040518060400160405280600481526020017f74787878000000000000000000000000000000000000000000000000000000008152506116cd565b610b766117ba565b610ba133610b826105d3565b600a610b8e9190612878565b62989680610b9c9190612996565b6118a3565b8015610bc25760008060016101000a81548160ff0219169083151502179055505b50565b600060c960009054906101000a900473ffffffffffffffffffffffffffffffffffffffff16905090565b606060378054610bfe90612a87565b80601f0160208091040260200160405190810160405280929190818152602001828054610c2a90612a87565b8015610c775780601f10610c4c57610100808354040283529160200191610c77565b820191906000526020600020905b815481529060010190602001808311610c5a57829003601f168201915b5050505050905090565b60008060346000610c90610f09565b73ffffffffffffffffffffffffffffffffffffffff1673ffffffffffffffffffffffffffffffffffffffff16815260200190815260200160002060008573ffffffffffffffffffffffffffffffffffffffff1673ffffffffffffffffffffffffffffffffffffffff16815260200190815260200160002054905082811015610d4d576040517f08c379a0000000000000000000000000000000000000000000000000000000008152600401610d44906126d1565b60405180910390fd5b610d61610d58610f09565b85858403610f11565b600191505092915050565b6000610d80610d79610f09565b84846110dc565b6001905092915050565b6000603460008473ffffffffffffffffffffffffffffffffffffffff1673ffffffffffffffffffffffffffffffffffffffff16815260200190815260200160002060008373ffffffffffffffffffffffffffffffffffffffff1673ffffffffffffffffffffffffffffffffffffffff16815260200190815260200160002054905092915050565b610e19610f09565b73ffffffffffffffffffffffffffffffffffffffff16610e37610bc5565b73ffffffffffffffffffffffffffffffffffffffff1614610e8d576040517f08c379a0000000000000000000000000000000000000000000000000000000008152600401610e8490612651565b60405180910390fd5b600073ffffffffffffffffffffffffffffffffffffffff168173ffffffffffffffffffffffffffffffffffffffff161415610efd576040517f08c379a0000000000000000000000000000000000000000000000000000000008152600401610ef490612551565b60405180910390fd5b610f0681611607565b50565b600033905090565b600073ffffffffffffffffffffffffffffffffffffffff168373ffffffffffffffffffffffffffffffffffffffff161415610f81576040517f08c379a0000000000000000000000000000000000000000000000000000000008152600401610f78906126b1565b60405180910390fd5b600073ffffffffffffffffffffffffffffffffffffffff168273ffffffffffffffffffffffffffffffffffffffff161415610ff1576040517f08c379a0000000000000000000000000000000000000000000000000000000008152600401610fe890612571565b60405180910390fd5b80603460008573ffffffffffffffffffffffffffffffffffffffff1673ffffffffffffffffffffffffffffffffffffffff16815260200190815260200160002060008473ffffffffffffffffffffffffffffffffffffffff1673ffffffffffffffffffffffffffffffffffffffff168152602001908152602001600020819055508173ffffffffffffffffffffffffffffffffffffffff168373ffffffffffffffffffffffffffffffffffffffff167f8c5be1e5ebec7d5bd14f71427d1e84f3dd0314c0f7b2291e5b200ac8c7c3b925836040516110cf9190612711565b60405180910390a3505050565b600073ffffffffffffffffffffffffffffffffffffffff168373ffffffffffffffffffffffffffffffffffffffff16141561114c576040517f08c379a000000000000000000000000000000000000000000000000000000000815260040161114390612691565b60405180910390fd5b600073ffffffffffffffffffffffffffffffffffffffff168273ffffffffffffffffffffffffffffffffffffffff1614156111bc576040517f08c379a00000000000000000000000000000000000000000000000000000000081526004016111b390612511565b60405180910390fd5b6111c7838383611a04565b6000603360008573ffffffffffffffffffffffffffffffffffffffff1673ffffffffffffffffffffffffffffffffffffffff1681526020019081526020016000205490508181101561124e576040517f08c379a0000000000000000000000000000000000000000000000000000000008152600401611245906125b1565b60405180910390fd5b818103603360008673ffffffffffffffffffffffffffffffffffffffff1673ffffffffffffffffffffffffffffffffffffffff1681526020019081526020016000208190555081603360008573ffffffffffffffffffffffffffffffffffffffff1673ffffffffffffffffffffffffffffffffffffffff16815260200190815260200160002060008282546112e391906127cf565b925050819055508273ffffffffffffffffffffffffffffffffffffffff168473ffffffffffffffffffffffffffffffffffffffff167fddf252ad1be2c89b69c2b068fc378daa952ba7f163c4a11628f55a4df523b3ef846040516113479190612711565b60405180910390a361135a848484611a09565b50505050565b600061138e7f360894a13ba1a3210667c828492db98dca3e2076cc3735a920a3ca505d382bbc60001b611a0e565b60000160009054906101000a900473ffffffffffffffffffffffffffffffffffffffff16905090565b6113bf610f09565b73ffffffffffffffffffffffffffffffffffffffff166113dd610bc5565b73ffffffffffffffffffffffffffffffffffffffff1614611433576040517f08c379a000000000000000000000000000000000000000000000000000000000815260040161142a90612651565b60405180910390fd5b50565b6000611440611360565b905061144b84611a18565b6000835111806114585750815b15611469576114678484611ad1565b505b60006114977f4910fdfa16fed3260ed0e7147f7cc6da11a60208b5b9406d12a635614ffd914360001b611bb5565b90508060000160009054906101000a900460ff166116005760018160000160006101000a81548160ff02191690831515021790555061156385836040516024016114e191906124b9565b6040516020818303038152906040527f3659cfe6000000000000000000000000000000000000000000000000000000007bffffffffffffffffffffffffffffffffffffffffffffffffffffffff19166020820180517bffffffffffffffffffffffffffffffffffffffffffffffffffffffff8381831617835250505050611ad1565b5060008160000160006101000a81548160ff021916908315150217905550611589611360565b73ffffffffffffffffffffffffffffffffffffffff168273ffffffffffffffffffffffffffffffffffffffff16146115f6576040517f08c379a00000000000000000000000000000000000000000000000000000000081526004016115ed90612531565b60405180910390fd5b6115ff85611bbf565b5b5050505050565b600060c960009054906101000a900473ffffffffffffffffffffffffffffffffffffffff1690508160c960006101000a81548173ffffffffffffffffffffffffffffffffffffffff021916908373ffffffffffffffffffffffffffffffffffffffff1602179055508173ffffffffffffffffffffffffffffffffffffffff168173ffffffffffffffffffffffffffffffffffffffff167f8be0079c531659141344cd1fd0a4f28419497f9722a3daafe3b4186f6b6457e060405160405180910390a35050565b600060019054906101000a900460ff16806116f3575060008054906101000a900460ff16155b611732576040517f08c379a0000000000000000000000000000000000000000000000000000000008152600401611729906125f1565b60405180910390fd5b60008060019054906101000a900460ff161590508015611782576001600060016101000a81548160ff02191690831515021790555060016000806101000a81548160ff0219169083151502179055505b61178a611c0e565b6117948383611ce7565b80156117b55760008060016101000a81548160ff0219169083151502179055505b505050565b600060019054906101000a900460ff16806117e0575060008054906101000a900460ff16155b61181f576040517f08c379a0000000000000000000000000000000000000000000000000000000008152600401611816906125f1565b60405180910390fd5b60008060019054906101000a900460ff16159050801561186f576001600060016101000a81548160ff02191690831515021790555060016000806101000a81548160ff0219169083151502179055505b611877611c0e565b61187f611df0565b80156118a05760008060016101000a81548160ff0219169083151502179055505b50565b600073ffffffffffffffffffffffffffffffffffffffff168273ffffffffffffffffffffffffffffffffffffffff161415611913576040517f08c379a000000000000000000000000000000000000000000000000000000000815260040161190a906126f1565b60405180910390fd5b61191f60008383611a04565b806035600082825461193191906127cf565b9250508190555080603360008473ffffffffffffffffffffffffffffffffffffffff1673ffffffffffffffffffffffffffffffffffffffff168152602001908152602001600020600082825461198791906127cf565b925050819055508173ffffffffffffffffffffffffffffffffffffffff16600073ffffffffffffffffffffffffffffffffffffffff167fddf252ad1be2c89b69c2b068fc378daa952ba7f163c4a11628f55a4df523b3ef836040516119ec9190612711565b60405180910390a3611a0060008383611a09565b5050565b505050565b505050565b6000819050919050565b611a2181611ed9565b611a60576040517f08c379a0000000000000000000000000000000000000000000000000000000008152600401611a5790612611565b60405180910390fd5b80611a8d7f360894a13ba1a3210667c828492db98dca3e2076cc3735a920a3ca505d382bbc60001b611a0e565b60000160006101000a81548173ffffffffffffffffffffffffffffffffffffffff021916908373ffffffffffffffffffffffffffffffffffffffff16021790555050565b6060611adc83611ed9565b611b1b576040517f08c379a0000000000000000000000000000000000000000000000000000000008152600401611b1290612671565b60405180910390fd5b6000808473ffffffffffffffffffffffffffffffffffffffff1684604051611b4391906124a2565b600060405180830381855af49150503d8060008114611b7e576040519150601f19603f3d011682016040523d82523d6000602084013e611b83565b606091505b5091509150611bab828260405180606001604052806027815260200161306860279139611eec565b9250505092915050565b6000819050919050565b611bc881611a18565b8073ffffffffffffffffffffffffffffffffffffffff167fbc7cd75a20ee27fd9adebab32041f755214dbc6bffa90cc0225b39da2e5c2d3b60405160405180910390a250565b600060019054906101000a900460ff1680611c34575060008054906101000a900460ff16155b611c73576040517f08c379a0000000000000000000000000000000000000000000000000000000008152600401611c6a906125f1565b60405180910390fd5b60008060019054906101000a900460ff161590508015611cc3576001600060016101000a81548160ff02191690831515021790555060016000806101000a81548160ff0219169083151502179055505b8015611ce45760008060016101000a81548160ff0219169083151502179055505b50565b600060019054906101000a900460ff1680611d0d575060008054906101000a900460ff16155b611d4c576040517f08c379a0000000000000000000000000000000000000000000000000000000008152600401611d43906125f1565b60405180910390fd5b60008060019054906101000a900460ff161590508015611d9c576001600060016101000a81548160ff02191690831515021790555060016000806101000a81548160ff0219169083151502179055505b8260369080519060200190611db2929190611f53565b508160379080519060200190611dc9929190611f53565b508015611deb5760008060016101000a81548160ff0219169083151502179055505b505050565b600060019054906101000a900460ff1680611e16575060008054906101000a900460ff16155b611e55576040517f08c379a0000000000000000000000000000000000000000000000000000000008152600401611e4c906125f1565b60405180910390fd5b60008060019054906101000a900460ff161590508015611ea5576001600060016101000a81548160ff02191690831515021790555060016000806101000a81548160ff0219169083151502179055505b611eb5611eb0610f09565b611607565b8015611ed65760008060016101000a81548160ff0219169083151502179055505b50565b600080823b905060008111915050919050565b60608315611efc57829050611f4c565b600083511115611f0f5782518084602001fd5b816040517f08c379a0000000000000000000000000000000000000000000000000000000008152600401611f4391906124ef565b60405180910390fd5b9392505050565b828054611f5f90612a87565b90600052602060002090601f016020900481019282611f815760008555611fc8565b82601f10611f9a57805160ff1916838001178555611fc8565b82800160010185558215611fc8579182015b82811115611fc7578251825591602001919060010190611fac565b5b509050611fd59190611fd9565b5090565b5b80821115611ff2576000816000905550600101611fda565b5090565b60006120096120048461276c565b612747565b90508281526020810184848401111561202157600080fd5b61202c848285612a45565b509392505050565b60008135905061204381613039565b92915050565b600082601f83011261205a57600080fd5b813561206a848260208601611ff6565b91505092915050565b60008135905061208281613050565b92915050565b60006020828403121561209a57600080fd5b60006120a884828501612034565b91505092915050565b600080604083850312156120c457600080fd5b60006120d285828601612034565b92505060206120e385828601612034565b9150509250929050565b60008060006060848603121561210257600080fd5b600061211086828701612034565b935050602061212186828701612034565b925050604061213286828701612073565b9150509250925092565b6000806040838503121561214f57600080fd5b600061215d85828601612034565b925050602083013567ffffffffffffffff81111561217a57600080fd5b61218685828601612049565b9150509250929050565b600080604083850312156121a357600080fd5b60006121b185828601612034565b92505060206121c285828601612073565b9150509250929050565b6121d5816129f0565b82525050565b6121e481612a02565b82525050565b60006121f58261279d565b6121ff81856127b3565b935061220f818560208601612a54565b80840191505092915050565b6000612226826127a8565b61223081856127be565b9350612240818560208601612a54565b61224981612b77565b840191505092915050565b60006122616023836127be565b915061226c82612b95565b604082019050919050565b6000612284602f836127be565b915061228f82612be4565b604082019050919050565b60006122a76026836127be565b91506122b282612c33565b604082019050919050565b60006122ca6022836127be565b91506122d582612c82565b604082019050919050565b60006122ed602c836127be565b91506122f882612cd1565b604082019050919050565b60006123106026836127be565b915061231b82612d20565b604082019050919050565b6000612333602c836127be565b915061233e82612d6f565b604082019050919050565b6000612356602e836127be565b915061236182612dbe565b604082019050919050565b6000612379602d836127be565b915061238482612e0d565b604082019050919050565b600061239c6028836127be565b91506123a782612e5c565b604082019050919050565b60006123bf6020836127be565b91506123ca82612eab565b602082019050919050565b60006123e26026836127be565b91506123ed82612ed4565b604082019050919050565b60006124056025836127be565b915061241082612f23565b604082019050919050565b60006124286024836127be565b915061243382612f72565b604082019050919050565b600061244b6025836127be565b915061245682612fc1565b604082019050919050565b600061246e601f836127be565b915061247982613010565b602082019050919050565b61248d81612a2e565b82525050565b61249c81612a38565b82525050565b60006124ae82846121ea565b915081905092915050565b60006020820190506124ce60008301846121cc565b92915050565b60006020820190506124e960008301846121db565b92915050565b60006020820190508181036000830152612509818461221b565b905092915050565b6000602082019050818103600083015261252a81612254565b9050919050565b6000602082019050818103600083015261254a81612277565b9050919050565b6000602082019050818103600083015261256a8161229a565b9050919050565b6000602082019050818103600083015261258a816122bd565b9050919050565b600060208201905081810360008301526125aa816122e0565b9050919050565b600060208201905081810360008301526125ca81612303565b9050919050565b600060208201905081810360008301526125ea81612326565b9050919050565b6000602082019050818103600083015261260a81612349565b9050919050565b6000602082019050818103600083015261262a8161236c565b9050919050565b6000602082019050818103600083015261264a8161238f565b9050919050565b6000602082019050818103600083015261266a816123b2565b9050919050565b6000602082019050818103600083015261268a816123d5565b9050919050565b600060208201905081810360008301526126aa816123f8565b9050919050565b600060208201905081810360008301526126ca8161241b565b9050919050565b600060208201905081810360008301526126ea8161243e565b9050919050565b6000602082019050818103600083015261270a81612461565b9050919050565b60006020820190506127266000830184612484565b92915050565b60006020820190506127416000830184612493565b92915050565b6000612751612762565b905061275d8282612ab9565b919050565b6000604051905090565b600067ffffffffffffffff82111561278757612786612b48565b5b61279082612b77565b9050602081019050919050565b600081519050919050565b600081519050919050565b600081905092915050565b600082825260208201905092915050565b60006127da82612a2e565b91506127e583612a2e565b9250827fffffffffffffffffffffffffffffffffffffffffffffffffffffffffffffffff0382111561281a57612819612aea565b5b828201905092915050565b6000808291508390505b600185111561286f5780860481111561284b5761284a612aea565b5b600185161561285a5780820291505b808102905061286885612b88565b945061282f565b94509492505050565b600061288382612a2e565b915061288e83612a38565b92506128bb7fffffffffffffffffffffffffffffffffffffffffffffffffffffffffffffffff84846128c3565b905092915050565b6000826128d3576001905061298f565b816128e1576000905061298f565b81600181146128f7576002811461290157612930565b600191505061298f565b60ff84111561291357612912612aea565b5b8360020a91508482111561292a57612929612aea565b5b5061298f565b5060208310610133831016604e8410600b84101617156129655782820a9050838111156129605761295f612aea565b5b61298f565b6129728484846001612825565b9250905081840481111561298957612988612aea565b5b81810290505b9392505050565b60006129a182612a2e565b91506129ac83612a2e565b9250817fffffffffffffffffffffffffffffffffffffffffffffffffffffffffffffffff04831182151516156129e5576129e4612aea565b5b828202905092915050565b60006129fb82612a0e565b9050919050565b60008115159050919050565b600073ffffffffffffffffffffffffffffffffffffffff82169050919050565b6000819050919050565b600060ff82169050919050565b82818337600083830152505050565b60005b83811015612a72578082015181840152602081019050612a57565b83811115612a81576000848401525b50505050565b60006002820490506001821680612a9f57607f821691505b60208210811415612ab357612ab2612b19565b5b50919050565b612ac282612b77565b810181811067ffffffffffffffff82111715612ae157612ae0612b48565b5b80604052505050565b7f4e487b7100000000000000000000000000000000000000000000000000000000600052601160045260246000fd5b7f4e487b7100000000000000000000000000000000000000000000000000000000600052602260045260246000fd5b7f4e487b7100000000000000000000000000000000000000000000000000000000600052604160045260246000fd5b6000601f19601f8301169050919050565b60008160011c9050919050565b7f45524332303a207472616e7366657220746f20746865207a65726f206164647260008201527f6573730000000000000000000000000000000000000000000000000000000000602082015250565b7f45524331393637557067726164653a207570677261646520627265616b73206660008201527f7572746865722075706772616465730000000000000000000000000000000000602082015250565b7f4f776e61626c653a206e6577206f776e657220697320746865207a65726f206160008201527f6464726573730000000000000000000000000000000000000000000000000000602082015250565b7f45524332303a20617070726f766520746f20746865207a65726f20616464726560008201527f7373000000000000000000000000000000000000000000000000000000000000602082015250565b7f46756e6374696f6e206d7573742062652063616c6c6564207468726f7567682060008201527f64656c656761746563616c6c0000000000000000000000000000000000000000602082015250565b7f45524332303a207472616e7366657220616d6f756e742065786365656473206260008201527f616c616e63650000000000000000000000000000000000000000000000000000602082015250565b7f46756e6374696f6e206d7573742062652063616c6c6564207468726f7567682060008201527f6163746976652070726f78790000000000000000000000000000000000000000602082015250565b7f496e697469616c697a61626c653a20636f6e747261637420697320616c72656160008201527f647920696e697469616c697a6564000000000000000000000000000000000000602082015250565b7f455243313936373a206e657720696d706c656d656e746174696f6e206973206e60008201527f6f74206120636f6e747261637400000000000000000000000000000000000000602082015250565b7f45524332303a207472616e7366657220616d6f756e742065786365656473206160008201527f6c6c6f77616e6365000000000000000000000000000000000000000000000000602082015250565b7f4f776e61626c653a2063616c6c6572206973206e6f7420746865206f776e6572600082015250565b7f416464726573733a2064656c65676174652063616c6c20746f206e6f6e2d636f60008201527f6e74726163740000000000000000000000000000000000000000000000000000602082015250565b7f45524332303a207472616e736665722066726f6d20746865207a65726f20616460008201527f6472657373000000000000000000000000000000000000000000000000000000602082015250565b7f45524332303a20617070726f76652066726f6d20746865207a65726f2061646460008201527f7265737300000000000000000000000000000000000000000000000000000000602082015250565b7f45524332303a2064656372656173656420616c6c6f77616e63652062656c6f7760008201527f207a65726f000000000000000000000000000000000000000000000000000000602082015250565b7f45524332303a206d696e7420746f20746865207a65726f206164647265737300600082015250565b613042816129f0565b811461304d57600080fd5b50565b61305981612a2e565b811461306457600080fd5b5056fe416464726573733a206c6f772d6c6576656c2064656c65676174652063616c6c206661696c6564a2646970667358221220838aaa8bbdddb099305db57354a415e3622b8ddbd0838a49b30ce3a79961d4c764736f6c63430008030033",
  "linkReferences": {},
  "deployedLinkReferences": {}
}