{
  "_format": "hh-sol-artifact-1",
  "contractName": "TxxxTokenV5",
  "sourceName": "contracts/Txxx.sol",
  "abi": [
    {
      "anonymous": false,
      "inputs": [
        {
          "indexed": false,
          "internalType": "address",
          "name": "previousAdmin",
          "type": "address"
        },
        {
          "indexed": false,
          "internalType": "address",
          "name": "newAdmin",
          "type": "address"
        }
      ],
      "name": "AdminChanged",
      "type": "event"
    },
    {
      "anonymous": false,
      "inputs": [
        {
          "indexed": true,
          "internalType": "address",
          "name": "owner",
          "type": "address"
        },
        {
          "indexed": true,
          "internalType": "address",
          "name": "spender",
          "type": "address"
        },
        {
          "indexed": false,
          "internalType": "uint256",
          "name": "value",
          "type": "uint256"
        }
      ],
      "name": "Approval",
      "type": "event"
    },
    {
      "anonymous": false,
      "inputs": [
        {
          "indexed": true,
          "internalType": "address",
          "name": "beacon",
          "type": "address"
        }
      ],
      "name": "BeaconUpgraded",
      "type": "event"
    },
    {
      "anonymous": false,
      "inputs": [
        {
          "indexed": true,
          "internalType": "address",
          "name": "previousOwner",
          "type": "address"
        },
        {
          "indexed": true,
          "internalType": "address",
          "name": "newOwner",
          "type": "address"
        }
      ],
      "name": "OwnershipTransferred",
      "type": "event"
    },
    {
      "anonymous": false,
      "inputs": [
        {
          "indexed": true,
          "internalType": "address",
          "name": "from",
          "type": "address"
        },
        {
          "indexed": true,
          "internalType": "address",
          "name": "to",
          "type": "address"
        },
        {
          "indexed": false,
          "internalType": "uint256",
          "name": "value",
          "type": "uint256"
        }
      ],
      "name": "Transfer",
      "type": "event"
    },
    {
      "anonymous": false,
      "inputs": [
        {
          "indexed": true,
          "internalType": "address",
          "name": "implementation",
          "type": "address"
        }
      ],
      "name": "Upgraded",
      "type": "event"
    },
    {
      "inputs": [
        {
          "internalType": "address",
          "name": "owner",
          "type": "address"
        },
        {
          "internalType": "address",
          "name": "spender",
          "type": "address"
        }
      ],
      "name": "allowance",
      "outputs": [
        {
          "internalType": "uint256",
          "name": "",
          "type": "uint256"
        }
      ],
      "stateMutability": "view",
      "type": "function"
    },
    {
      "inputs": [
        {
          "internalType": "address",
          "name": "spender",
          "type": "address"
        },
        {
          "internalType": "uint256",
          "name": "amount",
          "type": "uint256"
        }
      ],
      "name": "approve",
      "outputs": [
        {
          "internalType": "bool",
          "name": "",
          "type": "bool"
        }
      ],
      "stateMutability": "nonpayable",
      "type": "function"
    },
    {
      "inputs": [
        {
          "internalType": "address",
          "name": "account",
          "type": "address"
        }
      ],
      "name": "balanceOf",
      "outputs": [
        {
          "internalType": "uint256",
          "name": "",
          "type": "uint256"
        }
      ],
      "stateMutability": "view",
      "type": "function"
    },
    {
      "inputs": [],
      "name": "decimals",
      "outputs": [
        {
          "internalType": "uint8",
          "name": "",
          "type": "uint8"
        }
      ],
      "stateMutability": "view",
      "type": "function"
    },
    {
      "inputs": [
        {
          "internalType": "address",
          "name": "spender",
          "type": "address"
        },
        {
          "internalType": "uint256",
          "name": "subtractedValue",
          "type": "uint256"
        }
      ],
      "name": "decreaseAllowance",
      "outputs": [
        {
          "internalType": "bool",
          "name": "",
          "type": "bool"
        }
      ],
      "stateMutability": "nonpayable",
      "type": "function"
    },
    {
      "inputs": [
        {
          "internalType": "address",
          "name": "spender",
          "type": "address"
        },
        {
          "internalType": "uint256",
          "name": "addedValue",
          "type": "uint256"
        }
      ],
      "name": "increaseAllowance",
      "outputs": [
        {
          "internalType": "bool",
          "name": "",
          "type": "bool"
        }
      ],
      "stateMutability": "nonpayable",
      "type": "function"
    },
    {
      "inputs": [],
      "name": "initialize",
      "outputs": [],
      "stateMutability": "nonpayable",
      "type": "function"
    },
    {
      "inputs": [
        {
          "internalType": "address",
          "name": "to",
          "type": "address"
        },
        {
          "internalType": "uint256",
          "name": "amount",
          "type": "uint256"
        }
      ],
      "name": "mint",
      "outputs": [],
      "stateMutability": "nonpayable",
      "type": "function"
    },
    {
      "inputs": [],
      "name": "name",
      "outputs": [
        {
          "internalType": "string",
          "name": "",
          "type": "string"
        }
      ],
      "stateMutability": "view",
      "type": "function"
    },
    {
      "inputs": [],
      "name": "owner",
      "outputs": [
        {
          "internalType": "address",
          "name": "",
          "type": "address"
        }
      ],
      "stateMutability": "view",
      "type": "function"
    },
    {
      "inputs": [],
      "name": "renounceOwnership",
      "outputs": [],
      "stateMutability": "nonpayable",
      "type": "function"
    },
    {
      "inputs": [],
      "name": "symbol",
      "outputs": [
        {
          "internalType": "string",
          "name": "",
          "type": "string"
        }
      ],
      "stateMutability": "view",
      "type": "function"
    },
    {
      "inputs": [],
      "name": "totalSupply",
      "outputs": [
        {
          "internalType": "uint256",
          "name": "",
          "type": "uint256"
        }
      ],
      "stateMutability": "view",
      "type": "function"
    },
    {
      "inputs": [
        {
          "internalType": "address",
          "name": "recipient",
          "type": "address"
        },
        {
          "internalType": "uint256",
          "name": "amount",
          "type": "uint256"
        }
      ],
      "name": "transfer",
      "outputs": [
        {
          "internalType": "bool",
          "name": "",
          "type": "bool"
        }
      ],
      "stateMutability": "nonpayable",
      "type": "function"
    },
    {
      "inputs": [
        {
          "internalType": "address",
          "name": "sender",
          "type": "address"
        },
        {
          "internalType": "address",
          "name": "recipient",
          "type": "address"
        },
        {
          "internalType": "uint256",
          "name": "amount",
          "type": "uint256"
        }
      ],
      "name": "transferFrom",
      "outputs": [
        {
          "internalType": "bool",
          "name": "",
          "type": "bool"
        }
      ],
      "stateMutability": "nonpayable",
      "type": "function"
    },
    {
      "inputs": [
        {
          "internalType": "address",
          "name": "newOwner",
          "type": "address"
        }
      ],
      "name": "transferOwnership",
      "outputs": [],
      "stateMutability": "nonpayable",
      "type": "function"
    },
    {
      "inputs": [
        {
          "internalType": "address",
          "name": "newImplementation",
          "type": "address"
        }
      ],
      "name": "upgradeTo",
      "outputs": [],
      "stateMutability": "nonpayable",
      "type": "function"
    },
    {
      "inputs": [
        {
          "internalType": "address",
          "name": "newImplementation",
          "type": "address"
        },
        {
          "internalType": "bytes",
          "name": "data",
          "type": "bytes"
        }
      ],
      "name": "upgradeToAndCall",
      "outputs": [],
      "stateMutability": "payable",
      "type": "function"
    },
    {
      "inputs": [],
      "name": "version",
      "outputs": [
        {
          "internalType": "string",
          "name": "",
          "type": "string"
        }
      ],
      "stateMutability": "pure",
      "type": "function"
    }
  ],
  "bytecode": "0x60a06040523073ffffffffffffffffffffffffffffffffffffffff1660809073ffffffffffffffffffffffffffffffffffffffff1660601b81525034801561004657600080fd5b5060805160601c6131f561007a60003960008181610648015281816106d70152818161092d01526109bc01526131f56000f3fe6080604052600436106101145760003560e01c806354fd4d50116100a057806395d89b411161006457806395d89b4114610380578063a457c2d7146103ab578063a9059cbb146103e8578063dd62ed3e14610425578063f2fde38b1461046257610114565b806354fd4d50146102bf57806370a08231146102ea578063715018a6146103275780638129fc1c1461033e5780638da5cb5b1461035557610114565b8063313ce567116100e7578063313ce567146101e95780633659cfe614610214578063395093511461023d57806340c10f191461027a5780634f1ef286146102a357610114565b806306fdde0314610119578063095ea7b31461014457806318160ddd1461018157806323b872dd146101ac575b600080fd5b34801561012557600080fd5b5061012e61048b565b60405161013b9190612620565b60405180910390f35b34801561015057600080fd5b5061016b600480360381019061016691906122c1565b61051d565b6040516101789190612605565b60405180910390f35b34801561018d57600080fd5b5061019661053b565b6040516101a39190612842565b60405180910390f35b3480156101b857600080fd5b506101d360048036038101906101ce919061221e565b610545565b6040516101e09190612605565b60405180910390f35b3480156101f557600080fd5b506101fe61063d565b60405161020b919061285d565b60405180910390f35b34801561022057600080fd5b5061023b600480360381019061023691906121b9565b610646565b005b34801561024957600080fd5b50610264600480360381019061025f91906122c1565b6107f5565b6040516102719190612605565b60405180910390f35b34801561028657600080fd5b506102a1600480360381019061029c91906122c1565b6108a1565b005b6102bd60048036038101906102b8919061226d565b61092b565b005b3480156102cb57600080fd5b506102d4610a68565b6040516102e19190612620565b60405180910390f35b3480156102f657600080fd5b50610311600480360381019061030c91906121b9565b610aa5565b60405161031e9190612842565b60405180910390f35b34801561033357600080fd5b5061033c610aee565b005b34801561034a57600080fd5b50610353610b76565b005b34801561036157600080fd5b5061036a610cf6565b60405161037791906125ea565b60405180910390f35b34801561038c57600080fd5b50610395610d20565b6040516103a29190612620565b60405180910390f35b3480156103b757600080fd5b506103d260048036038101906103cd91906122c1565b610db2565b6040516103df9190612605565b60405180910390f35b3480156103f457600080fd5b5061040f600480360381019061040a91906122c1565b610e9d565b60405161041c9190612605565b60405180910390f35b34801561043157600080fd5b5061044c600480360381019061044791906121e2565b610ebb565b6040516104599190612842565b60405180910390f35b34801561046e57600080fd5b50610489600480360381019061048491906121b9565b610f42565b005b60606036805461049a90612bb8565b80601f01602080910402602001604051908101604052809291908181526020018280546104c690612bb8565b80156105135780601f106104e857610100808354040283529160200191610513565b820191906000526020600020905b8154815290600101906020018083116104f657829003601f168201915b5050505050905090565b600061053161052a61103a565b8484611042565b6001905092915050565b6000603554905090565b600061055284848461120d565b6000603460008673ffffffffffffffffffffffffffffffffffffffff1673ffffffffffffffffffffffffffffffffffffffff168152602001908152602001600020600061059d61103a565b73ffffffffffffffffffffffffffffffffffffffff1673ffffffffffffffffffffffffffffffffffffffff1681526020019081526020016000205490508281101561061d576040517f08c379a000000000000000000000000000000000000000000000000000000000815260040161061490612762565b60405180910390fd5b6106318561062961103a565b858403611042565b60019150509392505050565b60006012905090565b7f000000000000000000000000000000000000000000000000000000000000000073ffffffffffffffffffffffffffffffffffffffff163073ffffffffffffffffffffffffffffffffffffffff1614156106d5576040517f08c379a00000000000000000000000000000000000000000000000000000000081526004016106cc906126c2565b60405180910390fd5b7f000000000000000000000000000000000000000000000000000000000000000073ffffffffffffffffffffffffffffffffffffffff16610714611491565b73ffffffffffffffffffffffffffffffffffffffff161461076a576040517f08c379a000000000000000000000000000000000000000000000000000000000815260040161076190612702565b60405180910390fd5b610773816114e8565b6107f281600067ffffffffffffffff8111156107b8577f4e487b7100000000000000000000000000000000000000000000000000000000600052604160045260246000fd5b6040519080825280601f01601f1916602001820160405280156107ea5781602001600182028036833780820191505090505b506000611567565b50565b600061089761080261103a565b84846034600061081061103a565b73ffffffffffffffffffffffffffffffffffffffff1673ffffffffffffffffffffffffffffffffffffffff16815260200190815260200160002060008873ffffffffffffffffffffffffffffffffffffffff1673ffffffffffffffffffffffffffffffffffffffff168152602001908152602001600020546108929190612900565b611042565b6001905092915050565b6108a961103a565b73ffffffffffffffffffffffffffffffffffffffff166108c7610cf6565b73ffffffffffffffffffffffffffffffffffffffff161461091d576040517f08c379a000000000000000000000000000000000000000000000000000000000815260040161091490612782565b60405180910390fd5b6109278282611738565b5050565b7f000000000000000000000000000000000000000000000000000000000000000073ffffffffffffffffffffffffffffffffffffffff163073ffffffffffffffffffffffffffffffffffffffff1614156109ba576040517f08c379a00000000000000000000000000000000000000000000000000000000081526004016109b1906126c2565b60405180910390fd5b7f000000000000000000000000000000000000000000000000000000000000000073ffffffffffffffffffffffffffffffffffffffff166109f9611491565b73ffffffffffffffffffffffffffffffffffffffff1614610a4f576040517f08c379a0000000000000000000000000000000000000000000000000000000008152600401610a4690612702565b60405180910390fd5b610a58826114e8565b610a6482826001611567565b5050565b60606040518060400160405280600381526020017f7635210000000000000000000000000000000000000000000000000000000000815250905090565b6000603360008373ffffffffffffffffffffffffffffffffffffffff1673ffffffffffffffffffffffffffffffffffffffff168152602001908152602001600020549050919050565b610af661103a565b73ffffffffffffffffffffffffffffffffffffffff16610b14610cf6565b73ffffffffffffffffffffffffffffffffffffffff1614610b6a576040517f08c379a0000000000000000000000000000000000000000000000000000000008152600401610b6190612782565b60405180910390fd5b610b746000611899565b565b600060019054906101000a900460ff1680610b9c575060008054906101000a900460ff16155b610bdb576040517f08c379a0000000000000000000000000000000000000000000000000000000008152600401610bd290612722565b60405180910390fd5b60008060019054906101000a900460ff161590508015610c2b576001600060016101000a81548160ff02191690831515021790555060016000806101000a81548160ff0219169083151502179055505b610c9f6040518060400160405280600881526020017f74783078313131390000000000000000000000000000000000000000000000008152506040518060400160405280600481526020017f747878780000000000000000000000000000000000000000000000000000000081525061195f565b610ca7611a4c565b610cd233610cb361063d565b600a610cbf91906129a9565b62989680610ccd9190612ac7565b611738565b8015610cf35760008060016101000a81548160ff0219169083151502179055505b50565b600060c960009054906101000a900473ffffffffffffffffffffffffffffffffffffffff16905090565b606060378054610d2f90612bb8565b80601f0160208091040260200160405190810160405280929190818152602001828054610d5b90612bb8565b8015610da85780601f10610d7d57610100808354040283529160200191610da8565b820191906000526020600020905b815481529060010190602001808311610d8b57829003601f168201915b5050505050905090565b60008060346000610dc161103a565b73ffffffffffffffffffffffffffffffffffffffff1673ffffffffffffffffffffffffffffffffffffffff16815260200190815260200160002060008573ffffffffffffffffffffffffffffffffffffffff1673ffffffffffffffffffffffffffffffffffffffff16815260200190815260200160002054905082811015610e7e576040517f08c379a0000000000000000000000000000000000000000000000000000000008152600401610e7590612802565b60405180910390fd5b610e92610e8961103a565b85858403611042565b600191505092915050565b6000610eb1610eaa61103a565b848461120d565b6001905092915050565b6000603460008473ffffffffffffffffffffffffffffffffffffffff1673ffffffffffffffffffffffffffffffffffffffff16815260200190815260200160002060008373ffffffffffffffffffffffffffffffffffffffff1673ffffffffffffffffffffffffffffffffffffffff16815260200190815260200160002054905092915050565b610f4a61103a565b73ffffffffffffffffffffffffffffffffffffffff16610f68610cf6565b73ffffffffffffffffffffffffffffffffffffffff1614610fbe576040517f08c379a0000000000000000000000000000000000000000000000000000000008152600401610fb590612782565b60405180910390fd5b600073ffffffffffffffffffffffffffffffffffffffff168173ffffffffffffffffffffffffffffffffffffffff16141561102e576040517f08c379a000000000000000000000000000000000000000000000000000000000815260040161102590612682565b60405180910390fd5b61103781611899565b50565b600033905090565b600073ffffffffffffffffffffffffffffffffffffffff168373ffffffffffffffffffffffffffffffffffffffff1614156110b2576040517f08c379a00000000000000000000000000000000000000000000000000000000081526004016110a9906127e2565b60405180910390fd5b600073ffffffffffffffffffffffffffffffffffffffff168273ffffffffffffffffffffffffffffffffffffffff161415611122576040517f08c379a0000000000000000000000000000000000000000000000000000000008152600401611119906126a2565b60405180910390fd5b80603460008573ffffffffffffffffffffffffffffffffffffffff1673ffffffffffffffffffffffffffffffffffffffff16815260200190815260200160002060008473ffffffffffffffffffffffffffffffffffffffff1673ffffffffffffffffffffffffffffffffffffffff168152602001908152602001600020819055508173ffffffffffffffffffffffffffffffffffffffff168373ffffffffffffffffffffffffffffffffffffffff167f8c5be1e5ebec7d5bd14f71427d1e84f3dd0314c0f7b2291e5b200ac8c7c3b925836040516112009190612842565b60405180910390a3505050565b600073ffffffffffffffffffffffffffffffffffffffff168373ffffffffffffffffffffffffffffffffffffffff16141561127d576040517f08c379a0000000000000000000000000000000000000000000000000000000008152600401611274906127c2565b60405180910390fd5b600073ffffffffffffffffffffffffffffffffffffffff168273ffffffffffffffffffffffffffffffffffffffff1614156112ed576040517f08c379a00000000000000000000000000000000000000000000000000000000081526004016112e490612642565b60405180910390fd5b6112f8838383611b35565b6000603360008573ffffffffffffffffffffffffffffffffffffffff1673ffffffffffffffffffffffffffffffffffffffff1681526020019081526020016000205490508181101561137f576040517f08c379a0000000000000000000000000000000000000000000000000000000008152600401611376906126e2565b60405180910390fd5b818103603360008673ffffffffffffffffffffffffffffffffffffffff1673ffffffffffffffffffffffffffffffffffffffff1681526020019081526020016000208190555081603360008573ffffffffffffffffffffffffffffffffffffffff1673ffffffffffffffffffffffffffffffffffffffff16815260200190815260200160002060008282546114149190612900565b925050819055508273ffffffffffffffffffffffffffffffffffffffff168473ffffffffffffffffffffffffffffffffffffffff167fddf252ad1be2c89b69c2b068fc378daa952ba7f163c4a11628f55a4df523b3ef846040516114789190612842565b60405180910390a361148b848484611b3a565b50505050565b60006114bf7f360894a13ba1a3210667c828492db98dca3e2076cc3735a920a3ca505d382bbc60001b611b3f565b60000160009054906101000a900473ffffffffffffffffffffffffffffffffffffffff16905090565b6114f061103a565b73ffffffffffffffffffffffffffffffffffffffff1661150e610cf6565b73ffffffffffffffffffffffffffffffffffffffff1614611564576040517f08c379a000000000000000000000000000000000000000000000000000000000815260040161155b90612782565b60405180910390fd5b50565b6000611571611491565b905061157c84611b49565b6000835111806115895750815b1561159a576115988484611c02565b505b60006115c87f4910fdfa16fed3260ed0e7147f7cc6da11a60208b5b9406d12a635614ffd914360001b611ce6565b90508060000160009054906101000a900460ff166117315760018160000160006101000a81548160ff021916908315150217905550611694858360405160240161161291906125ea565b6040516020818303038152906040527f3659cfe6000000000000000000000000000000000000000000000000000000007bffffffffffffffffffffffffffffffffffffffffffffffffffffffff19166020820180517bffffffffffffffffffffffffffffffffffffffffffffffffffffffff8381831617835250505050611c02565b5060008160000160006101000a81548160ff0219169083151502179055506116ba611491565b73ffffffffffffffffffffffffffffffffffffffff168273ffffffffffffffffffffffffffffffffffffffff1614611727576040517f08c379a000000000000000000000000000000000000000000000000000000000815260040161171e90612662565b60405180910390fd5b61173085611cf0565b5b5050505050565b600073ffffffffffffffffffffffffffffffffffffffff168273ffffffffffffffffffffffffffffffffffffffff1614156117a8576040517f08c379a000000000000000000000000000000000000000000000000000000000815260040161179f90612822565b60405180910390fd5b6117b460008383611b35565b80603560008282546117c69190612900565b9250508190555080603360008473ffffffffffffffffffffffffffffffffffffffff1673ffffffffffffffffffffffffffffffffffffffff168152602001908152602001600020600082825461181c9190612900565b925050819055508173ffffffffffffffffffffffffffffffffffffffff16600073ffffffffffffffffffffffffffffffffffffffff167fddf252ad1be2c89b69c2b068fc378daa952ba7f163c4a11628f55a4df523b3ef836040516118819190612842565b60405180910390a361189560008383611b3a565b5050565b600060c960009054906101000a900473ffffffffffffffffffffffffffffffffffffffff1690508160c960006101000a81548173ffffffffffffffffffffffffffffffffffffffff021916908373ffffffffffffffffffffffffffffffffffffffff1602179055508173ffffffffffffffffffffffffffffffffffffffff168173ffffffffffffffffffffffffffffffffffffffff167f8be0079c531659141344cd1fd0a4f28419497f9722a3daafe3b4186f6b6457e060405160405180910390a35050565b600060019054906101000a900460ff1680611985575060008054906101000a900460ff16155b6119c4576040517f08c379a00000000000000000000000000000000000000000000000000000000081526004016119bb90612722565b60405180910390fd5b60008060019054906101000a900460ff161590508015611a14576001600060016101000a81548160ff02191690831515021790555060016000806101000a81548160ff0219169083151502179055505b611a1c611d3f565b611a268383611e18565b8015611a475760008060016101000a81548160ff0219169083151502179055505b505050565b600060019054906101000a900460ff1680611a72575060008054906101000a900460ff16155b611ab1576040517f08c379a0000000000000000000000000000000000000000000000000000000008152600401611aa890612722565b60405180910390fd5b60008060019054906101000a900460ff161590508015611b01576001600060016101000a81548160ff02191690831515021790555060016000806101000a81548160ff0219169083151502179055505b611b09611d3f565b611b11611f21565b8015611b325760008060016101000a81548160ff0219169083151502179055505b50565b505050565b505050565b6000819050919050565b611b528161200a565b611b91576040517f08c379a0000000000000000000000000000000000000000000000000000000008152600401611b8890612742565b60405180910390fd5b80611bbe7f360894a13ba1a3210667c828492db98dca3e2076cc3735a920a3ca505d382bbc60001b611b3f565b60000160006101000a81548173ffffffffffffffffffffffffffffffffffffffff021916908373ffffffffffffffffffffffffffffffffffffffff16021790555050565b6060611c0d8361200a565b611c4c576040517f08c379a0000000000000000000000000000000000000000000000000000000008152600401611c43906127a2565b60405180910390fd5b6000808473ffffffffffffffffffffffffffffffffffffffff1684604051611c7491906125d3565b600060405180830381855af49150503d8060008114611caf576040519150601f19603f3d011682016040523d82523d6000602084013e611cb4565b606091505b5091509150611cdc82826040518060600160405280602781526020016131996027913961201d565b9250505092915050565b6000819050919050565b611cf981611b49565b8073ffffffffffffffffffffffffffffffffffffffff167fbc7cd75a20ee27fd9adebab32041f755214dbc6bffa90cc0225b39da2e5c2d3b60405160405180910390a250565b600060019054906101000a900460ff1680611d65575060008054906101000a900460ff16155b611da4576040517f08c379a0000000000000000000000000000000000000000000000000000000008152600401611d9b90612722565b60405180910390fd5b60008060019054906101000a900460ff161590508015611df4576001600060016101000a81548160ff02191690831515021790555060016000806101000a81548160ff0219169083151502179055505b8015611e155760008060016101000a81548160ff0219169083151502179055505b50565b600060019054906101000a900460ff1680611e3e575060008054906101000a900460ff16155b611e7d576040517f08c379a0000000000000000000000000000000000000000000000000000000008152600401611e7490612722565b60405180910390fd5b60008060019054906101000a900460ff161590508015611ecd576001600060016101000a81548160ff02191690831515021790555060016000806101000a81548160ff0219169083151502179055505b8260369080519060200190611ee3929190612084565b508160379080519060200190611efa929190612084565b508015611f1c5760008060016101000a81548160ff0219169083151502179055505b505050565b600060019054906101000a900460ff1680611f47575060008054906101000a900460ff16155b611f86576040517f08c379a0000000000000000000000000000000000000000000000000000000008152600401611f7d90612722565b60405180910390fd5b60008060019054906101000a900460ff161590508015611fd6576001600060016101000a81548160ff02191690831515021790555060016000806101000a81548160ff0219169083151502179055505b611fe6611fe161103a565b611899565b80156120075760008060016101000a81548160ff0219169083151502179055505b50565b600080823b905060008111915050919050565b6060831561202d5782905061207d565b6000835111156120405782518084602001fd5b816040517f08c379a00000000000000000000000000000000000000000000000000000000081526004016120749190612620565b60405180910390fd5b9392505050565b82805461209090612bb8565b90600052602060002090601f0160209004810192826120b257600085556120f9565b82601f106120cb57805160ff19168380011785556120f9565b828001600101855582156120f9579182015b828111156120f85782518255916020019190600101906120dd565b5b509050612106919061210a565b5090565b5b8082111561212357600081600090555060010161210b565b5090565b600061213a6121358461289d565b612878565b90508281526020810184848401111561215257600080fd5b61215d848285612b76565b509392505050565b6000813590506121748161316a565b92915050565b600082601f83011261218b57600080fd5b813561219b848260208601612127565b91505092915050565b6000813590506121b381613181565b92915050565b6000602082840312156121cb57600080fd5b60006121d984828501612165565b91505092915050565b600080604083850312156121f557600080fd5b600061220385828601612165565b925050602061221485828601612165565b9150509250929050565b60008060006060848603121561223357600080fd5b600061224186828701612165565b935050602061225286828701612165565b9250506040612263868287016121a4565b9150509250925092565b6000806040838503121561228057600080fd5b600061228e85828601612165565b925050602083013567ffffffffffffffff8111156122ab57600080fd5b6122b78582860161217a565b9150509250929050565b600080604083850312156122d457600080fd5b60006122e285828601612165565b92505060206122f3858286016121a4565b9150509250929050565b61230681612b21565b82525050565b61231581612b33565b82525050565b6000612326826128ce565b61233081856128e4565b9350612340818560208601612b85565b80840191505092915050565b6000612357826128d9565b61236181856128ef565b9350612371818560208601612b85565b61237a81612ca8565b840191505092915050565b60006123926023836128ef565b915061239d82612cc6565b604082019050919050565b60006123b5602f836128ef565b91506123c082612d15565b604082019050919050565b60006123d86026836128ef565b91506123e382612d64565b604082019050919050565b60006123fb6022836128ef565b915061240682612db3565b604082019050919050565b600061241e602c836128ef565b915061242982612e02565b604082019050919050565b60006124416026836128ef565b915061244c82612e51565b604082019050919050565b6000612464602c836128ef565b915061246f82612ea0565b604082019050919050565b6000612487602e836128ef565b915061249282612eef565b604082019050919050565b60006124aa602d836128ef565b91506124b582612f3e565b604082019050919050565b60006124cd6028836128ef565b91506124d882612f8d565b604082019050919050565b60006124f06020836128ef565b91506124fb82612fdc565b602082019050919050565b60006125136026836128ef565b915061251e82613005565b604082019050919050565b60006125366025836128ef565b915061254182613054565b604082019050919050565b60006125596024836128ef565b9150612564826130a3565b604082019050919050565b600061257c6025836128ef565b9150612587826130f2565b604082019050919050565b600061259f601f836128ef565b91506125aa82613141565b602082019050919050565b6125be81612b5f565b82525050565b6125cd81612b69565b82525050565b60006125df828461231b565b915081905092915050565b60006020820190506125ff60008301846122fd565b92915050565b600060208201905061261a600083018461230c565b92915050565b6000602082019050818103600083015261263a818461234c565b905092915050565b6000602082019050818103600083015261265b81612385565b9050919050565b6000602082019050818103600083015261267b816123a8565b9050919050565b6000602082019050818103600083015261269b816123cb565b9050919050565b600060208201905081810360008301526126bb816123ee565b9050919050565b600060208201905081810360008301526126db81612411565b9050919050565b600060208201905081810360008301526126fb81612434565b9050919050565b6000602082019050818103600083015261271b81612457565b9050919050565b6000602082019050818103600083015261273b8161247a565b9050919050565b6000602082019050818103600083015261275b8161249d565b9050919050565b6000602082019050818103600083015261277b816124c0565b9050919050565b6000602082019050818103600083015261279b816124e3565b9050919050565b600060208201905081810360008301526127bb81612506565b9050919050565b600060208201905081810360008301526127db81612529565b9050919050565b600060208201905081810360008301526127fb8161254c565b9050919050565b6000602082019050818103600083015261281b8161256f565b9050919050565b6000602082019050818103600083015261283b81612592565b9050919050565b600060208201905061285760008301846125b5565b92915050565b600060208201905061287260008301846125c4565b92915050565b6000612882612893565b905061288e8282612bea565b919050565b6000604051905090565b600067ffffffffffffffff8211156128b8576128b7612c79565b5b6128c182612ca8565b9050602081019050919050565b600081519050919050565b600081519050919050565b600081905092915050565b600082825260208201905092915050565b600061290b82612b5f565b915061291683612b5f565b9250827fffffffffffffffffffffffffffffffffffffffffffffffffffffffffffffffff0382111561294b5761294a612c1b565b5b828201905092915050565b6000808291508390505b60018511156129a05780860481111561297c5761297b612c1b565b5b600185161561298b5780820291505b808102905061299985612cb9565b9450612960565b94509492505050565b60006129b482612b5f565b91506129bf83612b69565b92506129ec7fffffffffffffffffffffffffffffffffffffffffffffffffffffffffffffffff84846129f4565b905092915050565b600082612a045760019050612ac0565b81612a125760009050612ac0565b8160018114612a285760028114612a3257612a61565b6001915050612ac0565b60ff841115612a4457612a43612c1b565b5b8360020a915084821115612a5b57612a5a612c1b565b5b50612ac0565b5060208310610133831016604e8410600b8410161715612a965782820a905083811115612a9157612a90612c1b565b5b612ac0565b612aa38484846001612956565b92509050818404811115612aba57612ab9612c1b565b5b81810290505b9392505050565b6000612ad282612b5f565b9150612add83612b5f565b9250817fffffffffffffffffffffffffffffffffffffffffffffffffffffffffffffffff0483118215151615612b1657612b15612c1b565b5b828202905092915050565b6000612b2c82612b3f565b9050919050565b60008115159050919050565b600073ffffffffffffffffffffffffffffffffffffffff82169050919050565b6000819050919050565b600060ff82169050919050565b82818337600083830152505050565b60005b83811015612ba3578082015181840152602081019050612b88565b83811115612bb2576000848401525b50505050565b60006002820490506001821680612bd057607f821691505b60208210811415612be457612be3612c4a565b5b50919050565b612bf382612ca8565b810181811067ffffffffffffffff82111715612c1257612c11612c79565b5b80604052505050565b7f4e487b7100000000000000000000000000000000000000000000000000000000600052601160045260246000fd5b7f4e487b7100000000000000000000000000000000000000000000000000000000600052602260045260246000fd5b7f4e487b7100000000000000000000000000000000000000000000000000000000600052604160045260246000fd5b6000601f19601f8301169050919050565b60008160011c9050919050565b7f45524332303a207472616e7366657220746f20746865207a65726f206164647260008201527f6573730000000000000000000000000000000000000000000000000000000000602082015250565b7f45524331393637557067726164653a207570677261646520627265616b73206660008201527f7572746865722075706772616465730000000000000000000000000000000000602082015250565b7f4f776e61626c653a206e6577206f776e657220697320746865207a65726f206160008201527f6464726573730000000000000000000000000000000000000000000000000000602082015250565b7f45524332303a20617070726f766520746f20746865207a65726f20616464726560008201527f7373000000000000000000000000000000000000000000000000000000000000602082015250565b7f46756e6374696f6e206d7573742062652063616c6c6564207468726f7567682060008201527f64656c656761746563616c6c0000000000000000000000000000000000000000602082015250565b7f45524332303a207472616e7366657220616d6f756e742065786365656473206260008201527f616c616e63650000000000000000000000000000000000000000000000000000602082015250565b7f46756e6374696f6e206d7573742062652063616c6c6564207468726f7567682060008201527f6163746976652070726f78790000000000000000000000000000000000000000602082015250565b7f496e697469616c697a61626c653a20636f6e747261637420697320616c72656160008201527f647920696e697469616c697a6564000000000000000000000000000000000000602082015250565b7f455243313936373a206e657720696d706c656d656e746174696f6e206973206e60008201527f6f74206120636f6e747261637400000000000000000000000000000000000000602082015250565b7f45524332303a207472616e7366657220616d6f756e742065786365656473206160008201527f6c6c6f77616e6365000000000000000000000000000000000000000000000000602082015250565b7f4f776e61626c653a2063616c6c6572206973206e6f7420746865206f776e6572600082015250565b7f416464726573733a2064656c65676174652063616c6c20746f206e6f6e2d636f60008201527f6e74726163740000000000000000000000000000000000000000000000000000602082015250565b7f45524332303a207472616e736665722066726f6d20746865207a65726f20616460008201527f6472657373000000000000000000000000000000000000000000000000000000602082015250565b7f45524332303a20617070726f76652066726f6d20746865207a65726f2061646460008201527f7265737300000000000000000000000000000000000000000000000000000000602082015250565b7f45524332303a2064656372656173656420616c6c6f77616e63652062656c6f7760008201527f207a65726f000000000000000000000000000000000000000000000000000000602082015250565b7f45524332303a206d696e7420746f20746865207a65726f206164647265737300600082015250565b61317381612b21565b811461317e57600080fd5b50565b61318a81612b5f565b811461319557600080fd5b5056fe416464726573733a206c6f772d6c6576656c2064656c65676174652063616c6c206661696c6564a26469706673582212206bb9039176193406b17761f21e2fe66cf68c932b19afd66f4e217a483ded848464736f6c63430008030033",
  "linkReferences": {},
  "deployedLinkReferences": {}
}