{
  "_format": "hh-sol-artifact-1",
  "contractName": "TxxxTokenV3",
  "sourceName": "contracts/Txxx.sol",
  "abi": [
    {
      "anonymous": false,
      "inputs": [
        {
          "indexed": false,
          "internalType": "address",
          "name": "previousAdmin",
          "type": "address"
        },
        {
          "indexed": false,
          "internalType": "address",
          "name": "newAdmin",
          "type": "address"
        }
      ],
      "name": "AdminChanged",
      "type": "event"
    },
    {
      "anonymous": false,
      "inputs": [
        {
          "indexed": true,
          "internalType": "address",
          "name": "owner",
          "type": "address"
        },
        {
          "indexed": true,
          "internalType": "address",
          "name": "spender",
          "type": "address"
        },
        {
          "indexed": false,
          "internalType": "uint256",
          "name": "value",
          "type": "uint256"
        }
      ],
      "name": "Approval",
      "type": "event"
    },
    {
      "anonymous": false,
      "inputs": [
        {
          "indexed": true,
          "internalType": "address",
          "name": "beacon",
          "type": "address"
        }
      ],
      "name": "BeaconUpgraded",
      "type": "event"
    },
    {
      "anonymous": false,
      "inputs": [
        {
          "indexed": true,
          "internalType": "address",
          "name": "previousOwner",
          "type": "address"
        },
        {
          "indexed": true,
          "internalType": "address",
          "name": "newOwner",
          "type": "address"
        }
      ],
      "name": "OwnershipTransferred",
      "type": "event"
    },
    {
      "anonymous": false,
      "inputs": [
        {
          "indexed": true,
          "internalType": "address",
          "name": "from",
          "type": "address"
        },
        {
          "indexed": true,
          "internalType": "address",
          "name": "to",
          "type": "address"
        },
        {
          "indexed": false,
          "internalType": "uint256",
          "name": "value",
          "type": "uint256"
        }
      ],
      "name": "Transfer",
      "type": "event"
    },
    {
      "anonymous": false,
      "inputs": [
        {
          "indexed": true,
          "internalType": "address",
          "name": "implementation",
          "type": "address"
        }
      ],
      "name": "Upgraded",
      "type": "event"
    },
    {
      "inputs": [
        {
          "internalType": "address",
          "name": "owner",
          "type": "address"
        },
        {
          "internalType": "address",
          "name": "spender",
          "type": "address"
        }
      ],
      "name": "allowance",
      "outputs": [
        {
          "internalType": "uint256",
          "name": "",
          "type": "uint256"
        }
      ],
      "stateMutability": "view",
      "type": "function"
    },
    {
      "inputs": [
        {
          "internalType": "address",
          "name": "spender",
          "type": "address"
        },
        {
          "internalType": "uint256",
          "name": "amount",
          "type": "uint256"
        }
      ],
      "name": "approve",
      "outputs": [
        {
          "internalType": "bool",
          "name": "",
          "type": "bool"
        }
      ],
      "stateMutability": "nonpayable",
      "type": "function"
    },
    {
      "inputs": [
        {
          "internalType": "address",
          "name": "account",
          "type": "address"
        }
      ],
      "name": "balanceOf",
      "outputs": [
        {
          "internalType": "uint256",
          "name": "",
          "type": "uint256"
        }
      ],
      "stateMutability": "view",
      "type": "function"
    },
    {
      "inputs": [],
      "name": "decimals",
      "outputs": [
        {
          "internalType": "uint8",
          "name": "",
          "type": "uint8"
        }
      ],
      "stateMutability": "view",
      "type": "function"
    },
    {
      "inputs": [
        {
          "internalType": "address",
          "name": "spender",
          "type": "address"
        },
        {
          "internalType": "uint256",
          "name": "subtractedValue",
          "type": "uint256"
        }
      ],
      "name": "decreaseAllowance",
      "outputs": [
        {
          "internalType": "bool",
          "name": "",
          "type": "bool"
        }
      ],
      "stateMutability": "nonpayable",
      "type": "function"
    },
    {
      "inputs": [
        {
          "internalType": "address",
          "name": "spender",
          "type": "address"
        },
        {
          "internalType": "uint256",
          "name": "addedValue",
          "type": "uint256"
        }
      ],
      "name": "increaseAllowance",
      "outputs": [
        {
          "internalType": "bool",
          "name": "",
          "type": "bool"
        }
      ],
      "stateMutability": "nonpayable",
      "type": "function"
    },
    {
      "inputs": [],
      "name": "initialize",
      "outputs": [],
      "stateMutability": "nonpayable",
      "type": "function"
    },
    {
      "inputs": [],
      "name": "name",
      "outputs": [
        {
          "internalType": "string",
          "name": "",
          "type": "string"
        }
      ],
      "stateMutability": "view",
      "type": "function"
    },
    {
      "inputs": [],
      "name": "owner",
      "outputs": [
        {
          "internalType": "address",
          "name": "",
          "type": "address"
        }
      ],
      "stateMutability": "view",
      "type": "function"
    },
    {
      "inputs": [],
      "name": "renounceOwnership",
      "outputs": [],
      "stateMutability": "nonpayable",
      "type": "function"
    },
    {
      "inputs": [],
      "name": "symbol",
      "outputs": [
        {
          "internalType": "string",
          "name": "",
          "type": "string"
        }
      ],
      "stateMutability": "view",
      "type": "function"
    },
    {
      "inputs": [],
      "name": "totalSupply",
      "outputs": [
        {
          "internalType": "uint256",
          "name": "",
          "type": "uint256"
        }
      ],
      "stateMutability": "view",
      "type": "function"
    },
    {
      "inputs": [
        {
          "internalType": "address",
          "name": "recipient",
          "type": "address"
        },
        {
          "internalType": "uint256",
          "name": "amount",
          "type": "uint256"
        }
      ],
      "name": "transfer",
      "outputs": [
        {
          "internalType": "bool",
          "name": "",
          "type": "bool"
        }
      ],
      "stateMutability": "nonpayable",
      "type": "function"
    },
    {
      "inputs": [
        {
          "internalType": "address",
          "name": "sender",
          "type": "address"
        },
        {
          "internalType": "address",
          "name": "recipient",
          "type": "address"
        },
        {
          "internalType": "uint256",
          "name": "amount",
          "type": "uint256"
        }
      ],
      "name": "transferFrom",
      "outputs": [
        {
          "internalType": "bool",
          "name": "",
          "type": "bool"
        }
      ],
      "stateMutability": "nonpayable",
      "type": "function"
    },
    {
      "inputs": [
        {
          "internalType": "address",
          "name": "newOwner",
          "type": "address"
        }
      ],
      "name": "transferOwnership",
      "outputs": [],
      "stateMutability": "nonpayable",
      "type": "function"
    },
    {
      "inputs": [
        {
          "internalType": "address",
          "name": "newImplementation",
          "type": "address"
        }
      ],
      "name": "upgradeTo",
      "outputs": [],
      "stateMutability": "nonpayable",
      "type": "function"
    },
    {
      "inputs": [
        {
          "internalType": "address",
          "name": "newImplementation",
          "type": "address"
        },
        {
          "internalType": "bytes",
          "name": "data",
          "type": "bytes"
        }
      ],
      "name": "upgradeToAndCall",
      "outputs": [],
      "stateMutability": "payable",
      "type": "function"
    },
    {
      "inputs": [],
      "name": "version",
      "outputs": [
        {
          "internalType": "string",
          "name": "",
          "type": "string"
        }
      ],
      "stateMutability": "pure",
      "type": "function"
    }
  ],
  "bytecode": "0x60a06040523073ffffffffffffffffffffffffffffffffffffffff1660809073ffffffffffffffffffffffffffffffffffffffff1660601b81525034801561004657600080fd5b5060805160601c61313761007a60003960008181610614015281816106a30152818161086f01526108fe01526131376000f3fe6080604052600436106101095760003560e01c806370a082311161009557806395d89b411161006457806395d89b411461034c578063a457c2d714610377578063a9059cbb146103b4578063dd62ed3e146103f1578063f2fde38b1461042e57610109565b806370a08231146102b6578063715018a6146102f35780638129fc1c1461030a5780638da5cb5b1461032157610109565b8063313ce567116100dc578063313ce567146101de5780633659cfe61461020957806339509351146102325780634f1ef2861461026f57806354fd4d501461028b57610109565b806306fdde031461010e578063095ea7b31461013957806318160ddd1461017657806323b872dd146101a1575b600080fd5b34801561011a57600080fd5b50610123610457565b6040516101309190612562565b60405180910390f35b34801561014557600080fd5b50610160600480360381019061015b9190612203565b6104e9565b60405161016d9190612547565b60405180910390f35b34801561018257600080fd5b5061018b610507565b6040516101989190612784565b60405180910390f35b3480156101ad57600080fd5b506101c860048036038101906101c39190612160565b610511565b6040516101d59190612547565b60405180910390f35b3480156101ea57600080fd5b506101f3610609565b604051610200919061279f565b60405180910390f35b34801561021557600080fd5b50610230600480360381019061022b91906120fb565b610612565b005b34801561023e57600080fd5b5061025960048036038101906102549190612203565b6107c1565b6040516102669190612547565b60405180910390f35b610289600480360381019061028491906121af565b61086d565b005b34801561029757600080fd5b506102a06109aa565b6040516102ad9190612562565b60405180910390f35b3480156102c257600080fd5b506102dd60048036038101906102d891906120fb565b6109e7565b6040516102ea9190612784565b60405180910390f35b3480156102ff57600080fd5b50610308610a30565b005b34801561031657600080fd5b5061031f610ab8565b005b34801561032d57600080fd5b50610336610c38565b604051610343919061252c565b60405180910390f35b34801561035857600080fd5b50610361610c62565b60405161036e9190612562565b60405180910390f35b34801561038357600080fd5b5061039e60048036038101906103999190612203565b610cf4565b6040516103ab9190612547565b60405180910390f35b3480156103c057600080fd5b506103db60048036038101906103d69190612203565b610ddf565b6040516103e89190612547565b60405180910390f35b3480156103fd57600080fd5b5061041860048036038101906104139190612124565b610dfd565b6040516104259190612784565b60405180910390f35b34801561043a57600080fd5b50610455600480360381019061045091906120fb565b610e84565b005b60606036805461046690612afa565b80601f016020809104026020016040519081016040528092919081815260200182805461049290612afa565b80156104df5780601f106104b4576101008083540402835291602001916104df565b820191906000526020600020905b8154815290600101906020018083116104c257829003601f168201915b5050505050905090565b60006104fd6104f6610f7c565b8484610f84565b6001905092915050565b6000603554905090565b600061051e84848461114f565b6000603460008673ffffffffffffffffffffffffffffffffffffffff1673ffffffffffffffffffffffffffffffffffffffff1681526020019081526020016000206000610569610f7c565b73ffffffffffffffffffffffffffffffffffffffff1673ffffffffffffffffffffffffffffffffffffffff168152602001908152602001600020549050828110156105e9576040517f08c379a00000000000000000000000000000000000000000000000000000000081526004016105e0906126a4565b60405180910390fd5b6105fd856105f5610f7c565b858403610f84565b60019150509392505050565b60006012905090565b7f000000000000000000000000000000000000000000000000000000000000000073ffffffffffffffffffffffffffffffffffffffff163073ffffffffffffffffffffffffffffffffffffffff1614156106a1576040517f08c379a000000000000000000000000000000000000000000000000000000000815260040161069890612604565b60405180910390fd5b7f000000000000000000000000000000000000000000000000000000000000000073ffffffffffffffffffffffffffffffffffffffff166106e06113d3565b73ffffffffffffffffffffffffffffffffffffffff1614610736576040517f08c379a000000000000000000000000000000000000000000000000000000000815260040161072d90612644565b60405180910390fd5b61073f8161142a565b6107be81600067ffffffffffffffff811115610784577f4e487b7100000000000000000000000000000000000000000000000000000000600052604160045260246000fd5b6040519080825280601f01601f1916602001820160405280156107b65781602001600182028036833780820191505090505b5060006114a9565b50565b60006108636107ce610f7c565b8484603460006107dc610f7c565b73ffffffffffffffffffffffffffffffffffffffff1673ffffffffffffffffffffffffffffffffffffffff16815260200190815260200160002060008873ffffffffffffffffffffffffffffffffffffffff1673ffffffffffffffffffffffffffffffffffffffff1681526020019081526020016000205461085e9190612842565b610f84565b6001905092915050565b7f000000000000000000000000000000000000000000000000000000000000000073ffffffffffffffffffffffffffffffffffffffff163073ffffffffffffffffffffffffffffffffffffffff1614156108fc576040517f08c379a00000000000000000000000000000000000000000000000000000000081526004016108f390612604565b60405180910390fd5b7f000000000000000000000000000000000000000000000000000000000000000073ffffffffffffffffffffffffffffffffffffffff1661093b6113d3565b73ffffffffffffffffffffffffffffffffffffffff1614610991576040517f08c379a000000000000000000000000000000000000000000000000000000000815260040161098890612644565b60405180910390fd5b61099a8261142a565b6109a6828260016114a9565b5050565b60606040518060400160405280600381526020017f7633210000000000000000000000000000000000000000000000000000000000815250905090565b6000603360008373ffffffffffffffffffffffffffffffffffffffff1673ffffffffffffffffffffffffffffffffffffffff168152602001908152602001600020549050919050565b610a38610f7c565b73ffffffffffffffffffffffffffffffffffffffff16610a56610c38565b73ffffffffffffffffffffffffffffffffffffffff1614610aac576040517f08c379a0000000000000000000000000000000000000000000000000000000008152600401610aa3906126c4565b60405180910390fd5b610ab6600061167a565b565b600060019054906101000a900460ff1680610ade575060008054906101000a900460ff16155b610b1d576040517f08c379a0000000000000000000000000000000000000000000000000000000008152600401610b1490612664565b60405180910390fd5b60008060019054906101000a900460ff161590508015610b6d576001600060016101000a81548160ff02191690831515021790555060016000806101000a81548160ff0219169083151502179055505b610be16040518060400160405280600881526020017f74783078313131390000000000000000000000000000000000000000000000008152506040518060400160405280600481526020017f7478787800000000000000000000000000000000000000000000000000000000815250611740565b610be961182d565b610c1433610bf5610609565b600a610c0191906128eb565b62989680610c0f9190612a09565b611916565b8015610c355760008060016101000a81548160ff0219169083151502179055505b50565b600060c960009054906101000a900473ffffffffffffffffffffffffffffffffffffffff16905090565b606060378054610c7190612afa565b80601f0160208091040260200160405190810160405280929190818152602001828054610c9d90612afa565b8015610cea5780601f10610cbf57610100808354040283529160200191610cea565b820191906000526020600020905b815481529060010190602001808311610ccd57829003601f168201915b5050505050905090565b60008060346000610d03610f7c565b73ffffffffffffffffffffffffffffffffffffffff1673ffffffffffffffffffffffffffffffffffffffff16815260200190815260200160002060008573ffffffffffffffffffffffffffffffffffffffff1673ffffffffffffffffffffffffffffffffffffffff16815260200190815260200160002054905082811015610dc0576040517f08c379a0000000000000000000000000000000000000000000000000000000008152600401610db790612744565b60405180910390fd5b610dd4610dcb610f7c565b85858403610f84565b600191505092915050565b6000610df3610dec610f7c565b848461114f565b6001905092915050565b6000603460008473ffffffffffffffffffffffffffffffffffffffff1673ffffffffffffffffffffffffffffffffffffffff16815260200190815260200160002060008373ffffffffffffffffffffffffffffffffffffffff1673ffffffffffffffffffffffffffffffffffffffff16815260200190815260200160002054905092915050565b610e8c610f7c565b73ffffffffffffffffffffffffffffffffffffffff16610eaa610c38565b73ffffffffffffffffffffffffffffffffffffffff1614610f00576040517f08c379a0000000000000000000000000000000000000000000000000000000008152600401610ef7906126c4565b60405180910390fd5b600073ffffffffffffffffffffffffffffffffffffffff168173ffffffffffffffffffffffffffffffffffffffff161415610f70576040517f08c379a0000000000000000000000000000000000000000000000000000000008152600401610f67906125c4565b60405180910390fd5b610f798161167a565b50565b600033905090565b600073ffffffffffffffffffffffffffffffffffffffff168373ffffffffffffffffffffffffffffffffffffffff161415610ff4576040517f08c379a0000000000000000000000000000000000000000000000000000000008152600401610feb90612724565b60405180910390fd5b600073ffffffffffffffffffffffffffffffffffffffff168273ffffffffffffffffffffffffffffffffffffffff161415611064576040517f08c379a000000000000000000000000000000000000000000000000000000000815260040161105b906125e4565b60405180910390fd5b80603460008573ffffffffffffffffffffffffffffffffffffffff1673ffffffffffffffffffffffffffffffffffffffff16815260200190815260200160002060008473ffffffffffffffffffffffffffffffffffffffff1673ffffffffffffffffffffffffffffffffffffffff168152602001908152602001600020819055508173ffffffffffffffffffffffffffffffffffffffff168373ffffffffffffffffffffffffffffffffffffffff167f8c5be1e5ebec7d5bd14f71427d1e84f3dd0314c0f7b2291e5b200ac8c7c3b925836040516111429190612784565b60405180910390a3505050565b600073ffffffffffffffffffffffffffffffffffffffff168373ffffffffffffffffffffffffffffffffffffffff1614156111bf576040517f08c379a00000000000000000000000000000000000000000000000000000000081526004016111b690612704565b60405180910390fd5b600073ffffffffffffffffffffffffffffffffffffffff168273ffffffffffffffffffffffffffffffffffffffff16141561122f576040517f08c379a000000000000000000000000000000000000000000000000000000000815260040161122690612584565b60405180910390fd5b61123a838383611a77565b6000603360008573ffffffffffffffffffffffffffffffffffffffff1673ffffffffffffffffffffffffffffffffffffffff168152602001908152602001600020549050818110156112c1576040517f08c379a00000000000000000000000000000000000000000000000000000000081526004016112b890612624565b60405180910390fd5b818103603360008673ffffffffffffffffffffffffffffffffffffffff1673ffffffffffffffffffffffffffffffffffffffff1681526020019081526020016000208190555081603360008573ffffffffffffffffffffffffffffffffffffffff1673ffffffffffffffffffffffffffffffffffffffff16815260200190815260200160002060008282546113569190612842565b925050819055508273ffffffffffffffffffffffffffffffffffffffff168473ffffffffffffffffffffffffffffffffffffffff167fddf252ad1be2c89b69c2b068fc378daa952ba7f163c4a11628f55a4df523b3ef846040516113ba9190612784565b60405180910390a36113cd848484611a7c565b50505050565b60006114017f360894a13ba1a3210667c828492db98dca3e2076cc3735a920a3ca505d382bbc60001b611a81565b60000160009054906101000a900473ffffffffffffffffffffffffffffffffffffffff16905090565b611432610f7c565b73ffffffffffffffffffffffffffffffffffffffff16611450610c38565b73ffffffffffffffffffffffffffffffffffffffff16146114a6576040517f08c379a000000000000000000000000000000000000000000000000000000000815260040161149d906126c4565b60405180910390fd5b50565b60006114b36113d3565b90506114be84611a8b565b6000835111806114cb5750815b156114dc576114da8484611b44565b505b600061150a7f4910fdfa16fed3260ed0e7147f7cc6da11a60208b5b9406d12a635614ffd914360001b611c28565b90508060000160009054906101000a900460ff166116735760018160000160006101000a81548160ff0219169083151502179055506115d68583604051602401611554919061252c565b6040516020818303038152906040527f3659cfe6000000000000000000000000000000000000000000000000000000007bffffffffffffffffffffffffffffffffffffffffffffffffffffffff19166020820180517bffffffffffffffffffffffffffffffffffffffffffffffffffffffff8381831617835250505050611b44565b5060008160000160006101000a81548160ff0219169083151502179055506115fc6113d3565b73ffffffffffffffffffffffffffffffffffffffff168273ffffffffffffffffffffffffffffffffffffffff1614611669576040517f08c379a0000000000000000000000000000000000000000000000000000000008152600401611660906125a4565b60405180910390fd5b61167285611c32565b5b5050505050565b600060c960009054906101000a900473ffffffffffffffffffffffffffffffffffffffff1690508160c960006101000a81548173ffffffffffffffffffffffffffffffffffffffff021916908373ffffffffffffffffffffffffffffffffffffffff1602179055508173ffffffffffffffffffffffffffffffffffffffff168173ffffffffffffffffffffffffffffffffffffffff167f8be0079c531659141344cd1fd0a4f28419497f9722a3daafe3b4186f6b6457e060405160405180910390a35050565b600060019054906101000a900460ff1680611766575060008054906101000a900460ff16155b6117a5576040517f08c379a000000000000000000000000000000000000000000000000000000000815260040161179c90612664565b60405180910390fd5b60008060019054906101000a900460ff1615905080156117f5576001600060016101000a81548160ff02191690831515021790555060016000806101000a81548160ff0219169083151502179055505b6117fd611c81565b6118078383611d5a565b80156118285760008060016101000a81548160ff0219169083151502179055505b505050565b600060019054906101000a900460ff1680611853575060008054906101000a900460ff16155b611892576040517f08c379a000000000000000000000000000000000000000000000000000000000815260040161188990612664565b60405180910390fd5b60008060019054906101000a900460ff1615905080156118e2576001600060016101000a81548160ff02191690831515021790555060016000806101000a81548160ff0219169083151502179055505b6118ea611c81565b6118f2611e63565b80156119135760008060016101000a81548160ff0219169083151502179055505b50565b600073ffffffffffffffffffffffffffffffffffffffff168273ffffffffffffffffffffffffffffffffffffffff161415611986576040517f08c379a000000000000000000000000000000000000000000000000000000000815260040161197d90612764565b60405180910390fd5b61199260008383611a77565b80603560008282546119a49190612842565b9250508190555080603360008473ffffffffffffffffffffffffffffffffffffffff1673ffffffffffffffffffffffffffffffffffffffff16815260200190815260200160002060008282546119fa9190612842565b925050819055508173ffffffffffffffffffffffffffffffffffffffff16600073ffffffffffffffffffffffffffffffffffffffff167fddf252ad1be2c89b69c2b068fc378daa952ba7f163c4a11628f55a4df523b3ef83604051611a5f9190612784565b60405180910390a3611a7360008383611a7c565b5050565b505050565b505050565b6000819050919050565b611a9481611f4c565b611ad3576040517f08c379a0000000000000000000000000000000000000000000000000000000008152600401611aca90612684565b60405180910390fd5b80611b007f360894a13ba1a3210667c828492db98dca3e2076cc3735a920a3ca505d382bbc60001b611a81565b60000160006101000a81548173ffffffffffffffffffffffffffffffffffffffff021916908373ffffffffffffffffffffffffffffffffffffffff16021790555050565b6060611b4f83611f4c565b611b8e576040517f08c379a0000000000000000000000000000000000000000000000000000000008152600401611b85906126e4565b60405180910390fd5b6000808473ffffffffffffffffffffffffffffffffffffffff1684604051611bb69190612515565b600060405180830381855af49150503d8060008114611bf1576040519150601f19603f3d011682016040523d82523d6000602084013e611bf6565b606091505b5091509150611c1e82826040518060600160405280602781526020016130db60279139611f5f565b9250505092915050565b6000819050919050565b611c3b81611a8b565b8073ffffffffffffffffffffffffffffffffffffffff167fbc7cd75a20ee27fd9adebab32041f755214dbc6bffa90cc0225b39da2e5c2d3b60405160405180910390a250565b600060019054906101000a900460ff1680611ca7575060008054906101000a900460ff16155b611ce6576040517f08c379a0000000000000000000000000000000000000000000000000000000008152600401611cdd90612664565b60405180910390fd5b60008060019054906101000a900460ff161590508015611d36576001600060016101000a81548160ff02191690831515021790555060016000806101000a81548160ff0219169083151502179055505b8015611d575760008060016101000a81548160ff0219169083151502179055505b50565b600060019054906101000a900460ff1680611d80575060008054906101000a900460ff16155b611dbf576040517f08c379a0000000000000000000000000000000000000000000000000000000008152600401611db690612664565b60405180910390fd5b60008060019054906101000a900460ff161590508015611e0f576001600060016101000a81548160ff02191690831515021790555060016000806101000a81548160ff0219169083151502179055505b8260369080519060200190611e25929190611fc6565b508160379080519060200190611e3c929190611fc6565b508015611e5e5760008060016101000a81548160ff0219169083151502179055505b505050565b600060019054906101000a900460ff1680611e89575060008054906101000a900460ff16155b611ec8576040517f08c379a0000000000000000000000000000000000000000000000000000000008152600401611ebf90612664565b60405180910390fd5b60008060019054906101000a900460ff161590508015611f18576001600060016101000a81548160ff02191690831515021790555060016000806101000a81548160ff0219169083151502179055505b611f28611f23610f7c565b61167a565b8015611f495760008060016101000a81548160ff0219169083151502179055505b50565b600080823b905060008111915050919050565b60608315611f6f57829050611fbf565b600083511115611f825782518084602001fd5b816040517f08c379a0000000000000000000000000000000000000000000000000000000008152600401611fb69190612562565b60405180910390fd5b9392505050565b828054611fd290612afa565b90600052602060002090601f016020900481019282611ff4576000855561203b565b82601f1061200d57805160ff191683800117855561203b565b8280016001018555821561203b579182015b8281111561203a57825182559160200191906001019061201f565b5b509050612048919061204c565b5090565b5b8082111561206557600081600090555060010161204d565b5090565b600061207c612077846127df565b6127ba565b90508281526020810184848401111561209457600080fd5b61209f848285612ab8565b509392505050565b6000813590506120b6816130ac565b92915050565b600082601f8301126120cd57600080fd5b81356120dd848260208601612069565b91505092915050565b6000813590506120f5816130c3565b92915050565b60006020828403121561210d57600080fd5b600061211b848285016120a7565b91505092915050565b6000806040838503121561213757600080fd5b6000612145858286016120a7565b9250506020612156858286016120a7565b9150509250929050565b60008060006060848603121561217557600080fd5b6000612183868287016120a7565b9350506020612194868287016120a7565b92505060406121a5868287016120e6565b9150509250925092565b600080604083850312156121c257600080fd5b60006121d0858286016120a7565b925050602083013567ffffffffffffffff8111156121ed57600080fd5b6121f9858286016120bc565b9150509250929050565b6000806040838503121561221657600080fd5b6000612224858286016120a7565b9250506020612235858286016120e6565b9150509250929050565b61224881612a63565b82525050565b61225781612a75565b82525050565b600061226882612810565b6122728185612826565b9350612282818560208601612ac7565b80840191505092915050565b60006122998261281b565b6122a38185612831565b93506122b3818560208601612ac7565b6122bc81612bea565b840191505092915050565b60006122d4602383612831565b91506122df82612c08565b604082019050919050565b60006122f7602f83612831565b915061230282612c57565b604082019050919050565b600061231a602683612831565b915061232582612ca6565b604082019050919050565b600061233d602283612831565b915061234882612cf5565b604082019050919050565b6000612360602c83612831565b915061236b82612d44565b604082019050919050565b6000612383602683612831565b915061238e82612d93565b604082019050919050565b60006123a6602c83612831565b91506123b182612de2565b604082019050919050565b60006123c9602e83612831565b91506123d482612e31565b604082019050919050565b60006123ec602d83612831565b91506123f782612e80565b604082019050919050565b600061240f602883612831565b915061241a82612ecf565b604082019050919050565b6000612432602083612831565b915061243d82612f1e565b602082019050919050565b6000612455602683612831565b915061246082612f47565b604082019050919050565b6000612478602583612831565b915061248382612f96565b604082019050919050565b600061249b602483612831565b91506124a682612fe5565b604082019050919050565b60006124be602583612831565b91506124c982613034565b604082019050919050565b60006124e1601f83612831565b91506124ec82613083565b602082019050919050565b61250081612aa1565b82525050565b61250f81612aab565b82525050565b6000612521828461225d565b915081905092915050565b6000602082019050612541600083018461223f565b92915050565b600060208201905061255c600083018461224e565b92915050565b6000602082019050818103600083015261257c818461228e565b905092915050565b6000602082019050818103600083015261259d816122c7565b9050919050565b600060208201905081810360008301526125bd816122ea565b9050919050565b600060208201905081810360008301526125dd8161230d565b9050919050565b600060208201905081810360008301526125fd81612330565b9050919050565b6000602082019050818103600083015261261d81612353565b9050919050565b6000602082019050818103600083015261263d81612376565b9050919050565b6000602082019050818103600083015261265d81612399565b9050919050565b6000602082019050818103600083015261267d816123bc565b9050919050565b6000602082019050818103600083015261269d816123df565b9050919050565b600060208201905081810360008301526126bd81612402565b9050919050565b600060208201905081810360008301526126dd81612425565b9050919050565b600060208201905081810360008301526126fd81612448565b9050919050565b6000602082019050818103600083015261271d8161246b565b9050919050565b6000602082019050818103600083015261273d8161248e565b9050919050565b6000602082019050818103600083015261275d816124b1565b9050919050565b6000602082019050818103600083015261277d816124d4565b9050919050565b600060208201905061279960008301846124f7565b92915050565b60006020820190506127b46000830184612506565b92915050565b60006127c46127d5565b90506127d08282612b2c565b919050565b6000604051905090565b600067ffffffffffffffff8211156127fa576127f9612bbb565b5b61280382612bea565b9050602081019050919050565b600081519050919050565b600081519050919050565b600081905092915050565b600082825260208201905092915050565b600061284d82612aa1565b915061285883612aa1565b9250827fffffffffffffffffffffffffffffffffffffffffffffffffffffffffffffffff0382111561288d5761288c612b5d565b5b828201905092915050565b6000808291508390505b60018511156128e2578086048111156128be576128bd612b5d565b5b60018516156128cd5780820291505b80810290506128db85612bfb565b94506128a2565b94509492505050565b60006128f682612aa1565b915061290183612aab565b925061292e7fffffffffffffffffffffffffffffffffffffffffffffffffffffffffffffffff8484612936565b905092915050565b6000826129465760019050612a02565b816129545760009050612a02565b816001811461296a5760028114612974576129a3565b6001915050612a02565b60ff84111561298657612985612b5d565b5b8360020a91508482111561299d5761299c612b5d565b5b50612a02565b5060208310610133831016604e8410600b84101617156129d85782820a9050838111156129d3576129d2612b5d565b5b612a02565b6129e58484846001612898565b925090508184048111156129fc576129fb612b5d565b5b81810290505b9392505050565b6000612a1482612aa1565b9150612a1f83612aa1565b9250817fffffffffffffffffffffffffffffffffffffffffffffffffffffffffffffffff0483118215151615612a5857612a57612b5d565b5b828202905092915050565b6000612a6e82612a81565b9050919050565b60008115159050919050565b600073ffffffffffffffffffffffffffffffffffffffff82169050919050565b6000819050919050565b600060ff82169050919050565b82818337600083830152505050565b60005b83811015612ae5578082015181840152602081019050612aca565b83811115612af4576000848401525b50505050565b60006002820490506001821680612b1257607f821691505b60208210811415612b2657612b25612b8c565b5b50919050565b612b3582612bea565b810181811067ffffffffffffffff82111715612b5457612b53612bbb565b5b80604052505050565b7f4e487b7100000000000000000000000000000000000000000000000000000000600052601160045260246000fd5b7f4e487b7100000000000000000000000000000000000000000000000000000000600052602260045260246000fd5b7f4e487b7100000000000000000000000000000000000000000000000000000000600052604160045260246000fd5b6000601f19601f8301169050919050565b60008160011c9050919050565b7f45524332303a207472616e7366657220746f20746865207a65726f206164647260008201527f6573730000000000000000000000000000000000000000000000000000000000602082015250565b7f45524331393637557067726164653a207570677261646520627265616b73206660008201527f7572746865722075706772616465730000000000000000000000000000000000602082015250565b7f4f776e61626c653a206e6577206f776e657220697320746865207a65726f206160008201527f6464726573730000000000000000000000000000000000000000000000000000602082015250565b7f45524332303a20617070726f766520746f20746865207a65726f20616464726560008201527f7373000000000000000000000000000000000000000000000000000000000000602082015250565b7f46756e6374696f6e206d7573742062652063616c6c6564207468726f7567682060008201527f64656c656761746563616c6c0000000000000000000000000000000000000000602082015250565b7f45524332303a207472616e7366657220616d6f756e742065786365656473206260008201527f616c616e63650000000000000000000000000000000000000000000000000000602082015250565b7f46756e6374696f6e206d7573742062652063616c6c6564207468726f7567682060008201527f6163746976652070726f78790000000000000000000000000000000000000000602082015250565b7f496e697469616c697a61626c653a20636f6e747261637420697320616c72656160008201527f647920696e697469616c697a6564000000000000000000000000000000000000602082015250565b7f455243313936373a206e657720696d706c656d656e746174696f6e206973206e60008201527f6f74206120636f6e747261637400000000000000000000000000000000000000602082015250565b7f45524332303a207472616e7366657220616d6f756e742065786365656473206160008201527f6c6c6f77616e6365000000000000000000000000000000000000000000000000602082015250565b7f4f776e61626c653a2063616c6c6572206973206e6f7420746865206f776e6572600082015250565b7f416464726573733a2064656c65676174652063616c6c20746f206e6f6e2d636f60008201527f6e74726163740000000000000000000000000000000000000000000000000000602082015250565b7f45524332303a207472616e736665722066726f6d20746865207a65726f20616460008201527f6472657373000000000000000000000000000000000000000000000000000000602082015250565b7f45524332303a20617070726f76652066726f6d20746865207a65726f2061646460008201527f7265737300000000000000000000000000000000000000000000000000000000602082015250565b7f45524332303a2064656372656173656420616c6c6f77616e63652062656c6f7760008201527f207a65726f000000000000000000000000000000000000000000000000000000602082015250565b7f45524332303a206d696e7420746f20746865207a65726f206164647265737300600082015250565b6130b581612a63565b81146130c057600080fd5b50565b6130cc81612aa1565b81146130d757600080fd5b5056fe416464726573733a206c6f772d6c6576656c2064656c65676174652063616c6c206661696c6564a26469706673582212209d0c04c6381108ce62ea62f708b41733354602634ba73ac342c88e107821792f64736f6c63430008030033",
  "linkReferences": {},
  "deployedLinkReferences": {}
}